S00B00006469632E73726563E9
S113000049C0000066C0000064C0000062C0000077
S113001060C000005EC000005CC000005AC0000068
S113002058C0000056C0000054C0000052C0000078
S113003050C000004EC000004CC000004AC0000088
S11300400C94161346C0000044C0000042C00000D7
S11300500C942E123EC000003CC000003AC00000C8
S113006038C0000036C0000034C0000032C00000B8
S113007030C000002EC000002CC000002AC00000C8
S113008028C0000026C0000024C0000022C00000D8
S113009020C0000011241FBECFEFD0E1DEBFCDBFD2
S11300A011E0A0E0B1E0E8E6FAE200E00BBF02C034
S11300B007900D92A23DB107D9F724E0A2EDB1E07B
S11300C001C01D92A235B207E1F70E94B70E0C944D
S11300D0321596CFCF93DF9300D0CDB7DEB78A83A6
S11300E019828A818830C0F08DED90E0FC01808116
S11300F0882F90E02A81222F30E02850310902C055
S1130100959587952A95E2F78170992721E0892BA7
S113011009F020E0298315C08CED90E0FC0180817A
S1130120882F90E02A81222F30E002C09595879590
S11301302A95E2F78170992721E0892B09F020E0C4
S1130140298389810F900F90DF91CF910895CF93E8
S1130150DF9300D0CDB7DEB788ED90E0FC011082CC
S1130160198256C08DEE90E02981222F30E022952D
S11301703295307F3227207F32272860FC0120838C
S11301808EEE90E0FC0110828FEE90E0FC01108274
S113019080EF90E0FC01108281EF90E0FC0110827E
S11301A082EF90E0FC01108283EF90E0FC0110826A
S11301B084EF90E0FC01108285EF90E0FC01108256
S11301C086EF90E0FC01108287EF90E0FC01108242
S11301D01A8218C08DEE90E02981222F30E02295FA
S11301E03295307F3227207F3227322F2A81232BEA
S11301F02860FC0120838AEF90E0FC0110828A8150
S11302008F5F8A838A81883028F389818F5F89830D
S113021089818F3008F4A6CF82EE90E0FC01108231
S113022083EE90E02CE0FC01208384EE90E026E352
S1130230FC0120838BED90E0FC01108288ED90E0BE
S113024028ED30E0F90120812260FC0120830000C8
S11302500F900F90DF91CF910895CF93DF9300D04B
S113026000D01F92CDB7DEB79B838A837D836C83D6
S11302708DEE90E02A813B81F90124812295207F33
S1130280FC0120838A819B81FC01848123DF8823F4
S113029009F450C083EF90E02A813B81F901208169
S11302A03181369527953695279536952795FC0106
S11302B0208382EF90E02A813B81F9012081318102
S11302C02295220F207EFC01208381EF90E0FC0127
S11302D0108280EF90E024E0FC01208387EF90E01F
S11302E02A813B81F9012281338136952795369500
S11302F0279536952795FC01208386EF90E02A8187
S11303003B81F901228133812295220F207EFC0159
S1130310208385EF90E0FC01108284EF90E0FC01E3
S113032010828FEE90E028ECFC0120838EEE90E0AA
S1130330FC011082198224C08DEE90E02A813B8159
S1130340F9012481222F30E022953295307F322723
S1130350207F3227322F2981232B2860FC01208320
S11303608981882F90E02C813D81820F931F2AEF91
S113037030E0F9012081FC01208389818F5F89832A
S113038089818830C8F200000F900F900F900F9071
S11303900F90DF91CF910895CF93DF9300D000D0D9
S11303A01F92CDB7DEB79B838A837D836C831982CA
S11303B024C08DEE90E02A813B81F9012481222F13
S11303C030E022953295307F3227207F3227322F3A
S11303D02981232B2860FC0120838AEF90E0298166
S11303E0222F30E04C815D81240F351FF9012081DB
S11303F0FC01208389818F5F898389818830C8F2D9
S11304008DEE90E02A813B81F90124812295207FA1
S1130410FC0120838A819B81FC0184815BDE88232B
S113042009F444C08EEE90E0FC01108283EF90E06A
S11304302A813B81F90120813181369527953695B2
S1130440279536952795FC01208382EF90E02A8139
S11304503B81F901208131812295220F207EFC010C
S1130460208381EF90E0FC01108280EF90E0FC019A
S1130470108287EF90E0FC01108286EF90E0FC018F
S1130480108285EF90E0FC01108284EF90E0FC0183
S113049010828EEE90E0FC0110828FEE90E028E452
S11304A0FC0120838EEE90E0FC01108200000F908E
S11304B00F900F900F900F90DF91CF910895CF93ED
S11304C0DF93CDB7DEB780E098E09093EE0280939F
S11304D0ED028FEF9FEF9093F0028093EF02109262
S11304E0F10280E096E090937E0280937D028FEF8C
S11304F09FEF9093800280937F0281E0809381023A
S113050081E096E090937E0280937D028FEF9FEFCF
S11305109093800280937F0282E08093810280E046
S113052094E090938B0280938A028FEF9FEF9093D5
S11305308D0280938C0283E080938E0280E194E0AC
S113054090939D0280939C028FEF9FEF90939F0264
S113055080939E0284E08093A00280E294E09093D2
S1130560F3028093F2028FEF9FEF9093F502809352
S1130570F40285E08093F60289E997E09093C4023F
S11305808093C3028FEF9FEF9093C6028093C502BE
S113059086E08093C70288E997E09093AA0280934B
S11305A0A9028FEF9FEF9093AC028093AB0287E098
S11305B08093AD0287E997E0909361028093600293
S11305C08FEF9FEF90936302809362028AE080939F
S11305D0640280E095E090930503809304038FEF19
S11305E09FEF90930703809306038BE080930803A7
S11305F080E092E090930A03809309038FEF9FEFCA
S113060090930C0380930B038CE080930D0381E0A3
S113061092E09093C9028093C8028FEF9FEF90936A
S1130620CB028093CA028DE08093CC0282E092E0F8
S1130630909300038093FF028FEF9FEF9093020348
S1130640809301038EE08093030383E092E0909310
S1130650900280938F028FEF9FEF9093920280938A
S113066091028FE0809393020000DF91CF9108956F
S1130670CF93DF93CDB7DEB767EF72E08DEE92E0F4
S1130680ECDD6DED72E08DE792E0E7DD65ED72E0A3
S113069086EB92E0E2DD61EA72E08AE892E0DDDD79
S11306A06EEA72E08CE992E0D8DD6BEB72E082EFE7
S11306B092E0D3DD65EE72E083EC92E0CEDD68E596
S11306C072E089EA92E0C9DD65E672E080E692E0D4
S11306D0C4DD64E972E089E093E0BFDD65E772E0C0
S11306E088EC92E0BADD62E872E08FEF92E0B5DD6B
S11306F06DEC72E08FE892E0B0DD8AEA80936D02DF
S113070085E580936E028CEC80936F0283E3809383
S1130710700280EF809371028FE0809372028FECFD
S11307208093730280E3809374026DE672E084E048
S113073093E032DE0000DF91CF910895CF93DF93F1
S1130740CDB7DEB78091F7028093D2018091F80291
S11307508093D3018091D2018370809332021092EE
S1130760DE018091A202882F90E0382F2227809109
S1130770A102882F90E0822B932B2AE030E0B9016C
S11307800E94E514CB018093DF018091A402882F9D
S113079090E0382F22278091A302882F90E0822BAB
S11307A0932B2AE030E0B9010E94E514CB01809339
S11307B0E0018091AF02882F90E0382F22278091AA
S11307C0AE02882F90E0822B932B2AE030E0B9010F
S11307D00E94E514CB018093E1018091B102882F3E
S11307E090E0382F22278091B002882F90E0822B4E
S11307F0932B2AE030E0B9010E94E514CB018093E9
S1130800E2018091BC02882F90E0382F222780914A
S1130810BB02882F90E0822B932B2AE030E0B901B1
S11308200E94E514CB019093DD018093DC0180915B
S1130830DE02882F90E0382F22278091DD02882F56
S113084090E0822B932B28E230E0B9010E94E5145A
S1130850CB019093DB018093DA018091D602882F3B
S113086090E0982F8827982F8091D502892B809328
S1130870E3018091D802882F90E0382F22278091BD
S1130880D702882F90E0822B932B9093E5018093DD
S1130890E401809194028093E60180919602882F6E
S11308A090E0382F222780919502882F90E0822BA8
S11308B0932B9093E8018093E701809198028093B1
S11308C0E90180917602882F90E0382F22278091C9
S11308D07502882F90E0822B932B26E030E0B9013B
S11308E00E94E514CB019093D5018093D4018091AB
S11308F07A02882F90E0382F222780917902882F5E
S113090090E0822B932B9093D9018093D80180910E
S11309108902882F90E0382F222780918802882F1F
S113092090E0822B932B9093D7018093D6018091F2
S1130930CD028093EA018091E6028093F0018091D8
S1130940E702882F90E09093F2018093F101809167
S1130950E802882F90E0A0E0B0E08093F301909348
S1130960F401A093F501B093F6018091E902882F78
S113097090E0A0E0B0E08093F7019093F801A09399
S1130980F901B093FA018091F001282F30E08091B1
S1130990F1019091F201982F8827822B932B9C01CF
S11309A040E050E08091F3019091F401A091F501B1
S11309B0B091F601DC0199278827282B392B4A2B83
S11309C05B2B8091F7019091F801A091F901B0910E
S11309D0FA01B82FAA2799278827822B932BA42BB7
S11309E0B52B8093EC019093ED01A093EE01B093AD
S11309F0EF01809158028093FF0180915902882F62
S1130A0090E0909301028093000280915A02882F13
S1130A1090E0A0E0B0E08093020290930302A093E0
S1130A200402B093050280915B02882F90E0A0E05D
S1130A30B0E08093060290930702A0930802B0935B
S1130A4009028091FF01282F30E0809100029091EB
S1130A500102982F8827822B932B9C0140E050E0C1
S1130A608091020290910302A0910402B0910502C8
S1130A70DC0199278827282B392B4A2B5B2B809163
S1130A80060290910702A0910802B0910902B82FC2
S1130A90AA2799278827822B932BA42BB52B8093E5
S1130AA0FB019093FC01A093FD01B093FE018091A2
S1130AB05C0280930E0280915D02882F90E09093F7
S1130AC0100280930F0280915E02882F90E0A0E0D4
S1130AD0B0E08093110290931202A0931302B0939A
S1130AE0140280915F02882F90E0A0E0B0E0809330
S1130AF0150290931602A0931702B09318028091E6
S1130B000E02282F30E080910F0290911002982F4E
S1130B108827822B932B9C0140E050E080911102A6
S1130B2090911202A0911302B0911402DC01992752
S1130B308827282B392B4A2B5B2B80911502909107
S1130B401602A0911702B0911802B82FAA2799276C
S1130B508827822B932BA42BB52B80930A02909386
S1130B600B02A0930C02B0930D028091EB02882F2C
S1130B7090E0382F22278091EA02882F90E0822B80
S1130B80932B90931A028093190280916C02882F00
S1130B9090E0382F222780916B02882F90E0822BDF
S1130BA0932B90931C0280931B028091E502809307
S1130BB0EB01809143029091440280936D02000006
S1130BC0DF91CF910895EF92FF920F931F93CF93EC
S1130BD0DF9300D0CDB7DEB789836A8389818A30F9
S1130BE008F459C08981282F30E08A81882F90E049
S1130BF0820F931F092E000CAA0BBB0BBC01CD0165
S1130C000E94E213DC01CB0180931D0290931E022B
S1130C10A0931F02B09320028981882F90E0092EAF
S1130C20000CAA0BBB0BBC01CD010E94E2137B019B
S1130C308C0180911D0290911E02A0911F02B0911F
S1130C4020029C01AD01C801B7010E944C13DC01D4
S1130C50CB0180931D0290931E02A0931F02B093B8
S1130C60200280911D0290911E02A0911F02B0915A
S1130C70200220E030E048EC52E4BC01CD010E94A7
S1130C806E14DC01CB0180931D0290931E02A0938D
S1130C901F02B093200280911D0290911E02A09128
S1130CA01F02B0912002BC01CD010E94B413DC01EB
S1130CB0CB010F900F90DF91CF911F910F91FF9077
S1130CC0EF900895CF93DF93CDB7DEB727970FB694
S1130CD0F894DEBF0FBECDBF8B837D836C834E83C0
S1130CE02F831A8219822EC08B81682F70E08F8126
S1130CF0282F30E08E81482F50E089819A81840F1B
S1130D00951FEC81FD8149815A814E0F5F1FDA01E5
S1130D10EC91F4E1F29FA001F39F500D1124F0E552
S1130D20F69F9001F79F300D1124240F351F820F79
S1130D30931F825F9C4FDC01EC9389819A81019619
S1130D409A8389838C819D810E9429159C018981C4
S1130D509A818217930740F2000027960FB6F89401
S1130D60DEBF0FBECDBFDF91CF910895EF920F93F9
S1130D701F93CF93DF93CDB7DEB762970FB6F89486
S1130D80DEBF0FBECDBF8A877C876B874D872E87DA
S1130D900F87E88A4DB75EB75A8B498B8DB79EB7DC
S1130DA08C012E85822F90E001979E838D83822F64
S1130DB090E06DB77EB7681B790B0FB6F8947EBFD1
S1130DC00FBE6DBF8DB79EB7019698878F8319822A
S1130DD081E08A8340C04B855C859A01ADECBCEC14
S1130DE00E941A1596958795969587959695879559
S1130DF0880F991F9C01220F331F220F331F820F6C
S1130E00931FDA01A81BB90BCD0189878E85282F82
S1130E1030E08A81882F90E0F901E81BF90BCF01BB
S1130E20298540E3420F2F813885820F931FDC010F
S1130E304C938B859C859C01ADECBCEC0E941A15EF
S1130E409695879596958795969587959C878B8794
S1130E508A818F5F8A839A818E85891708F0BBCF38
S1130E601B821C82C8C08C81882F90E02F8138851A
S1130E70820F931FFC018081803311F081E08B830A
S1130E8061E08B81882309F060E08C81282F30E0B9
S1130E908E85482F50E08D85882F90E0DA01A81BBD
S1130EA0B90BCD01029741E0281739070CF040E057
S1130EB0862F8423882351F08C81882F90E02F8102
S1130EC03885820F931F20E1FC0120838C81282F19
S1130ED030E08E85482F50E08D85882F90E0BA0150
S1130EE0681B790BCB012817390764F58A85682FAD
S1130EF070E08889282F30E08F85482F50E08C815E
S1130F00882F90E0840F951F4C81442F50E0AF81CF
S1130F10B8854A0F5B1FFA01A081B4E1B29FA0011A
S1130F20B39F500D1124B0E5B69F9001B79F300DCB
S1130F301124240F351F820F931F825F9C4FFC01E5
S1130F40A08356C08981882329F58A85682F70E09B
S1130F508889282F30E08F85482F50E08C81882F96
S1130F6090E0840F951FA4E1A29FA001A39F500DC0
S1130F701124A0E5A69F9001A79F300D1124240FF2
S1130F80351F820F931F825F9C4F2EE2DC012C934E
S1130F9081E089838A85682F70E08889282F30E072
S1130FA08F85882F90E0AC014F5F5F4F8C81882F35
S1130FB090E0840F951F4C81442F50E0AF81B88599
S1130FC04A0F5B1FFA01A081B4E1B29FA001B39F55
S1130FD0500D1124B0E5B69F9001B79F300D112438
S1130FE0240F351F820F931F825F9C4FFC01A08347
S1130FF08C818F5F8C839C818E85981708F433CF06
S11310000FB6F8941EBF0FBE0DBF000049895A8960
S11310100FB6F8945EBF0FBE4DBF62960FB6F8943C
S1131020DEBF0FBECDBFDF91CF911F910F91EF9027
S113103008950F93CF93DF93CDB7DEB763970FB6C1
S1131040F894DEBF0FBECDBF8D874E875F87688B58
S1131050798B2A8B0B8B8E859F85A889B98928EE7D
S113106033E040E050E0BC01CD010E94F814DC0103
S1131070CB019A8389838E859F85A889B98928EEB7
S113108033E040E050E0BC01CD010E94F814DA01E5
S1131090C9019C838B838B819C819C01A9E8B8E85E
S11310A00E941A1596958795929582958F70892737
S11310B09F7089279C838B838E859F85A889B98996
S11310C028EE33E040E050E0BC01CD010E94F8146A
S11310D0DA01C9019E838D834D815E819A01A9E85D
S11310E0B8E80E941A159C013695279532952295E9
S11310F02F7023273F7023276CE3629FC001639FF7
S1131100900D11249A01281B390BC9019E838D83EC
S11311101F8258C049815A819A01ADECBCEC0E94EF
S11311201A15969587959695879596958795880F20
S1131130991F9C01220F331F220F331F820F931F0D
S1131140FA01E81BF90BCF018B878B85805D8B87B8
S113115089819A819C01ADECBCEC0E941A1596958C
S1131160879596958795969587959A8389838D8596
S1131170682F70E08B89282F30E08A89882F90E0CF
S1131180AC01495F5F4F8F81882F90E0FA01E81B23
S1131190F90BCF01E4E1E29FA001E39F500D11247C
S11311A0E0E5E69F9001E79F300D1124240F351FE1
S11311B0820F931F825F9C4F2B85FC0120838F81BC
S11311C08F5F8F838F81833008F4A4CF188658C033
S11311D04D815E819A01ADECBCEC0E941A15969586
S11311E087959695879596958795880F991F9C0165
S11311F0220F331F220F331F820F931F9A01281BC4
S1131200390BC9018C878C85805D8C878D819E818B
S11312109C01ADECBCEC0E941A15969587959695A9
S11312208795969587959E838D838D85682F70E02D
S11312308B89282F30E08A89882F90E0AC014D5F9C
S11312405F4F8885882F90E0FA01E81BF90BCF01E6
S1131250E4E1E29FA001E39F500D1124E0E5E69F45
S11312609001E79F300D1124240F351F820F931F27
S1131270825F9C4F2C85FC01208388858F5F888743
S11312808885823008F4A4CF198666C04B815C81BE
S11312909A01ADECBCEC0E941A159695879596952B
S11312A0879596958795880F991F9C01220F331F68
S11312B0220F331F820F931F9A01281B390BC90178
S11312C08A878A85805D8A8731E08A85803309F040
S11312D030E021E08B819C810A9708F020E0832F85
S11312E08223882311F080E18A878B819C819C0171
S11312F0ADECBCEC0E941A1596958795969587954A
S1131300969587959C838B838D85682F70E08B8958
S1131310282F30E08A89482F50E08985882F90E073
S1131320FA01E81BF90BCF01E4E1E29FA001E39F7E
S1131330500D1124E0E5E69F9001E79F300D112444
S1131340240F351F820F931F825F9C4F2A85FC0157
S1131350208389858F5F89878985823008F496CFB9
S1131360000063960FB6F894DEBF0FBECDBFDF91C9
S1131370CF910F910895CF93DF9300D000D0CDB7D4
S1131380DEB71A82198256C01C821B8249C0898129
S11313909A8144E1489F9001499F300D11248B812B
S11313A09C81820F931F825F9C4F20E1FC0120836C
S11313B089819A8144E1489F9001499F300D11240D
S11313C08B819C81820F931F825A9C4F20E1FC01E8
S11313D0208389819A8144E1489F9001499F300D7F
S11313E011248B819C81820F931F82559C4F20E195
S11313F0FC01208389819A8144E1489F9001499F9F
S1131400300D11248B819C81820F931F82509C4F3D
S113141020E1FC0120838B819C8101969C838B833A
S11314208B819C8144970CF4B2CF89819A81019677
S11314309A83898389819A8104970CF4A5CF00004B
S11314400F900F900F900F90DF91CF910895CF934D
S1131450DF93CDB7DEB784E580930E0383E58093F5
S11314600F0386E58093100383E58093180380E5DA
S11314708093190384E480931A0383E48093220302
S11314808FE4809323038FE4809324038CE480937C
S1131490250381E480932C0383E480932D0384E566
S11314A080932E0382E48093360382E4809337038F
S11314B083E5809340038FE48093410383E4809326
S11314C042038CE48093540386E58093550383E5BB
S11314D08093560386E5809316038BE480931F0361
S11314E08DE48093200388E48093210383E4809334
S11314F02A0383E4809333038DE280933E0385E2E1
S11315008093470386E580935B0384E580935E03C1
S113151080E580935F0383E58093600381E3809398
S1131520610382E38093680381E48093720380E51E
S11315308093730383E58093740381E3809375033D
S113154082E380937C0384E58093860380E5809323
S1131550870383E58093880385E48093890382E489
S113156080939A0380E580939B0386E480939C0395
S113157082E58093A20385E28093660385E28093EB
S11315807A0385E280938E0385E280936D0385E27E
S11315908093810382E48093A00382E48093A60372
S11315A084E58093AE0383E48093AF0382E4809365
S11315B0C20385E48093C30383E58093C40380E579
S11315C08093D60382E58093D70385E48093D80380
S11315D08CE48093EA038EE48093EB0383E58093A9
S11315E0B30380E58093B40385E48093B50384E476
S11315F08093B6038BE48093BB038DE48093BC0398
S113160088E48093BD038FE48093F00384E48093A3
S1131610F1038FE48093F2038BE48093F7038DE46A
S11316208093F8038AE38093C7038AE38093CA0311
S11316308AE38093DB038AE38093DE030000DF9177
S1131640CF910895CF93DF9300D01F92CDB7DEB72B
S11316508B8319821A8222C08B81882F90E02A8181
S1131660222F30E002C0959587952A95E2F7817084
S113167099272A81222F30E047E050E0BA01621B0B
S1131680730B9B0102C0880F991F2A95E2F7982FCC
S11316908981892B89838A818F5F8A838A818830B3
S11316A0D8F289810F900F900F90DF91CF91089518
S11316B0CF93DF93CDB7DEB782E290E022E230E051
S11316C0F90120812F70FC01208384E390E024E35E
S11316D030E0F90120812B7FFC0120830000DF91A1
S11316E0CF910895CF93DF93CDB7DEB788E290E032
S11316F0FC01108284E390E024E330E0F9012081CE
S11317002C7FFC0120830000DF91CF910895CF93BB
S1131710DF931F92CDB7DEB7898382E290E022E2A5
S113172030E0F9012081622F2981422F50E02FEF10
S113173030E002C0220F331F4A95E2F7209530951E
S113174022953295307F3227207F3227262BFC01C9
S1131750208384E390E024E330E0F9012081622FC8
S11317602981422F50E020E830E002C035952795CA
S11317704A95E2F72470262BFC01208300000F9089
S1131780DF91CF910895CF93DF931F92CDB7DEB74A
S1131790898388E290E028E230E0F9012081622F19
S11317A02981422F50E02FEF30E002C03595279574
S11317B04A95E2F72095262BFC01208384E390E0F0
S11317C024E330E0F9012081622F398129E3329F3B
S11317D0212D11242695422F50E02FEF30E002C036
S11317E0220F331F4A95E2F720953095598149E33A
S11317F0549F412D11244695442F50E002C0220FDE
S1131800331F4A95E2F7422F39812DEC329F212D67
S11318101124269526952695240F262BFC0120833A
S113182000000F90DF91CF9108950F931F93CF93F2
S1131830DF9300D000D0CDB7DEB78B836C830EE28C
S113184010E08B81FFDEF80180838C81813051F4BC
S113185085E290E025E230E0F90120812064FC017A
S1131860208309C085E290E025E230E0F90120817F
S11318702F7BFC01208385E290E025E230E0F90132
S113188020812061FC0120831A82198205C089818C
S11318909A8101969A83898389819A8184369105F4
S11318A0B4F385E290E025E230E0F90120812F7E57
S11318B0FC01208300000F900F900F900F90DF9198
S11318C0CF911F910F9108958F92AF92CF92EF9283
S11318D00F93CF93DF93CDB7DEB729970FB6F89464
S11318E0DEBF0FBECDBF89836A834B832C830D83F8
S11318F0EE82CF82A88689868981882F90E0089617
S1131900880F880F880F60E090DF61E08A818DDFA7
S113191061E08B818ADF61E08C8187DF61E08D810A
S113192084DF61E08E8181DF61E08F817EDF61E0B1
S113193088857BDF61E0898578DF60E082E075DFA0
S1131940000029960FB6F894DEBF0FBECDBFDF911D
S1131950CF910F91EF90CF90AF908F900895CF9348
S1131960DF931F92CDB7DEB789838091260284313D
S113197028F58981682F70E080912702282F30E0B4
S11319808091260291E0980F90932602882F90E090
S1131990E4E1E29FA001E39F500D1124E0E5E69FFE
S11319A09001E79F300D1124240F351F820F931FE0
S11319B0825F9C4FFC01808161E037DF80912602C9
S11319C0843189F480912702882F90E0895F9E4FAB
S11319D0FC01808160E029DF1092260280912702B9
S11319E08F5F8093270280912702843011F4109234
S11319F0270200000F90DF91CF9108958F92AF924C
S1131A00CF92EF920F93CF93DF93CDB7DEB70F2E24
S1131A10FFE18F2EF02D0F2EFFE1AF2EF02D0F2EB4
S1131A20FFE1CF2EF02DE12C00E020E040E060E06B
S1131A3080E04ADF812CA12CC12CE12C00E020E0C5
S1131A404FE16FE181E040DF0F2EFFEE8F2EF02D8E
S1131A500F2EFFEEAF2EF02D0F2EFFEECF2EF02D1A
S1131A600F2EFFEEEF2EF02D0FEE2FEE4FEE6FEE5A
S1131A7082E02ADF0F2EFEE18F2EF02D0F2EFEE1E5
S1131A80AF2EF02D0F2EFEE1CF2EF02D0F2EFEE106
S1131A90EF2EF02D0EE12EE14EE16EE183E014DF36
S1131AA0812CA12CC12CE12C0FEF2FEF4FEF6FEF06
S1131AB084E00ADF0F2EFFEE8F2EF02D0F2EFFEEA7
S1131AC0AF2EF02D0F2EFFEECF2EF02D0F2EFFEEAA
S1131AD0EF2EF02D0FEF2FEF4FEF6FEF85E0F4DED9
S1131AE0812C6894AA24A1F80F2EF5E1CF2EF02DB5
S1131AF00F2EFAE0EF2EF02D04E02AE045E168E035
S1131B0086E0E2DE0000DF91CF910F91EF90CF905D
S1131B10AF908F900895CF93DF9300D0CDB7DEB709
S1131B201A8219820DC089819A8180509F4FFC01CD
S1131B30808160E07ADE89819A8101969A83898323
S1131B4089819A8107977CF300000F900F90DF91B1
S1131B50CF910895CF93DF93CDB7DEB78091210263
S1131B6090912202A0912302B09124028854944FB0
S1131B70AF4FBF4F9C01AD0180913B0290913C025D
S1131B80A0913D02B0913E02281739074A075B072E
S1131B90D8F020E040E06CE071E080E093D821E0F0
S1131BA040E061E271E080E08DD822E040E066E34D
S1131BB071E080E087D823E040E06BE471E080E0EE
S1131BC081D880E0CCDE35C0809121029091220240
S1131BD0A0912302B09124028059984EAF4FBF4F79
S1131BE09C01AD0180913B0290913C02A0913D0289
S1131BF0B0913E02281739074A075B07D0F020E06E
S1131C0040E060E671E080E05DD821E040E065E717
S1131C1071E080E057D822E040E06AE871E080E0BB
S1131C2051D823E040E06FE971E080E04BD880E0D8
S1131C3096DE80912502482F50E024E931E0429F4E
S1131C40C001439F900D529F900D11249C01990F48
S1131C50440B550B8091210290912202A091230202
S1131C60B0912402820F931FA41FB51F9C01AD01E4
S1131C7080913B0290913C02A0913D02B0913E02C2
S1131C80281739074A075B0798F4809125028630A4
S1131C9020F4809125023BDD06C085E038DD80918B
S1131CA02502855070DD809125028F5F8093250287
S1131CB00000DF91CF910895CF93DF931F92CDB7AA
S1131CC0DEB7198223E030E040E050E064EB71E0DD
S1131CD080E090E00E9462068091DC019091DD0139
S1131CE08337910578F08981882F90E023E030E0F4
S1131CF0AC016FEB71E080E090E00E9462068981A4
S1131D008C5F89838091DC019091DD0131E0CC9777
S1131D1008F430E08981882F90E0049621E00B9745
S1131D2008F020E0832F8223882379F08981882F8B
S1131D3090E023E030E0AC016FEB71E080E090E0F4
S1131D400E94620689818C5F89838981882351F48A
S1131D5023E030E040E050E064EC71E080E090E0AB
S1131D600E94620600000F90DF91CF910895EF92D8
S1131D70FF920F931F93CF93DF93CDB7DEB7C9D3F1
S1131D803ED40E945F02C7DE39DE0E94A700F3DA68
S1131D90789480913B0290913C02A0913D02B091D5
S1131DA03E02909322028093210201C0D3DE8091EF
S1131DB02102909122028059984E9C01990F440B64
S1131DC0550B80913B0290913C02A0913D02B09151
S1131DD03E02281739074A075B0740F768EB7BE0A8
S1131DE08AE052D2C8DA33DB80915602813208F499
S1131DF0D8C11092560280913202882309F03FC163
S1131E008091D4019091D501E12C05E023E040E0DC
S1131E10BC0180E00E94B60680911B0290911C02D6
S1131E20E12C0EE023E040E0BC0180E00E94B60615
S1131E308091DC019091DD01EE24E39406E022E040
S1131E4040E0BC0180E00E94B6068091D6019091EA
S1131E50D701EE24E3940FE022E040E0BC0180E0EF
S1131E600E94B6068091D8019091D9016894EE241D
S1131E70E1F80EE023E040E0BC0180E00E94B606F9
S1131E808091DA019091DB010F2EF3E0EF2EF02D1B
S1131E900FE022E040E0BC0180E00E94B6068091A1
S1131EA0D301882371F422E040E067EC71E080E024
S1131EB00E94620681E080930B0181E080934302DB
S1131EC02BC01092430280910B01882391F080E192
S1131ED08093380380E18093390380E180933A034F
S1131EE080E180933B0380910B01815080930B012F
S1131EF0AEDA9091E2018091E101692F0E94E3053D
S1131F00882F90E06894EE24E1F806E022E040E0B7
S1131F10BC0180E00E94B6062091EC013091ED01F5
S1131F204091EE015091EF018091FB019091FC01F1
S1131F30A091FD01B091FE0179018A01E81AF90A24
S1131F400A0B1B0BD801C7018093440290934502EE
S1131F50A0934602B093470220914802309149026F
S1131F6040914A0250914B02809144029091450263
S1131F70A0914602B0914702281739074A075B0728
S1131F80A1F180913B0290913C02A0913D02B0915D
S1131F903E0280933F0290934002A0934102B0938B
S1131FA0420280913F0290914002A0914102B0917F
S1131FB0420288579C4EAF4FBF4F80933F0290938D
S1131FC04002A0934102B093420280914402909156
S1131FD04502A0914602B091470280934802909333
S1131FE04902A0934A02B0934B0220913F023091E0
S1131FF04002409141025091420280913B029091F3
S11320003C02A0913D02B0913E0282179307A407BF
S1132010B50768F58091440290914502A09146026B
S1132020B091470299231CF4919581959109092E49
S1132030000CAA0BBB0B03E021E0AC01BD0180E066
S11320400E9419088AE380934F038091440290917F
S11320504502A0914602B0914702BB2324F08BE2D3
S113206080934A030CC08DE280934A0308C024DEA7
S113207023E040E068E272E080E00E946206809122
S113208032028130C1F58091DF01882F90E0EE2487
S1132090E39405E023E040E0BC0181E00E94B60641
S11320A08091E001882F90E0EE24E3940CE023E09B
S11320B040E0BC0181E00E94B6068091E101882FD6
S11320C090E00F2EF3E0EF2EF02D04E022E040E04C
S11320D0BC0181E00E94B6068091E201882F90E065
S11320E00F2EF3E0EF2EF02D0AE022E040E0BC01D9
S11320F081E00E94B60680913202823009F051C01C
S11321008091FB019091FC01A091FD01B091FE0131
S113211001E024E0AC01BD0182E00E941908809135
S11321200A0290910B02A0910C02B0910D0202E000
S113213024E0AC01BD0182E00E94190880911902DB
S113214090911A020F2EF3E0EF2EF02D0AE023E017
S113215040E0BC0182E00E94B606E12C03E021E0ED
S113216040E069E070E082E00E94B6068091EB01F5
S1132170882F90E00F2EF3E0EF2EF02D03E022E005
S113218040E0BC0182E00E94B60680911B0290915F
S11321901C02E12C0AE023E040E0BC0182E00E9442
S11321A0B60680915702882331F080913202D7DB42
S11321B01092570296D020913B0230913C024091FC
S11321C03D0250913E028091370290913802A091D5
S11321D03902B0913A0279018A01E81AF90A0A0B24
S11321E01B0BD801C7010A97A105B105A0F00E94F5
S11321F038030E949E0380913B0290913C02A0917F
S11322003D02B0913E028093370290933802A0932E
S11322103902B0933A0220913B0230913C02409142
S11322203D0250913E028091330290913402A0917C
S11322303502B091360279018A01E81AF90A0A0BCB
S11322401B0BD801C70184369105A105B10508F41B
S1132250CBCD84E390E024E330E0F901308128E041
S11322602327FC01208380913B0290913C02A091A2
S11322703D02B0913E028093330290933402A093C6
S11322803502B0933602B0CDCF93DF9300D01F92C6
S1132290CDB7DEB789837B836A83898180934E02BD
S11322A08A819B819093500280934F0280913B02DC
S11322B090913C02A0913D02B0913E028093510264
S11322C090935202A0935302B093540210924C0282
S11322D010924D0200000F900F900F90DF91CF915C
S11322E008950F931F93CF93DF93CDB7DEB79091EB
S11322F04C0280914E02981708F0A2C020914F0220
S11323003091500280914E02882F90E0880F991FDF
S1132310AC01C901BA0145D3CB01969587959C01BF
S113232040E050E08091510290915202A0915302FA
S1132330B091540289019A01080F191F2A1F3B1FEB
S113234080914C02E82FF0E040914F0250915002EE
S113235080914E02882F90E0880F991FBC01CA011A
S113236020D3CB01AC01E49FC001E59F900DF49F05
S1132370900D1124CC01A0E0B0E0A9019801280F30
S1132380391F4A1F5B1F80913B0290913C02A09130
S11323903D02B0913E0282179307A407B50788F067
S11323A080914D02882369F481E080934D0285E099
S11323B0AED98AE0E8D980914C028F5F80934C02B9
S11323C047C080914C02282F30E040914F02509139
S11323D0500280914E02882F90E0880F991FBC0113
S11323E0CA01DFD2CB01AC01249FC001259F900D0F
S11323F0349F900D11249C0140E050E080915102E3
S113240090915202A0915302B0915402280F391FA7
S11324104A1F5B1F80913B0290913C02A0913D02B8
S1132420B0913E0282179307A407B50788F0809104
S11324304D02813069F410924D023AD953D908C043
S113244010924C0210924E0210924D0231D94AD988
S11324500000DF91CF911F910F9108951F920F9269
S113246000905F000F92112400905B000F922F9355
S11324703F938F939F93EF93FF93CF93DF93CDB7C6
S1132480DEB780915502882F90E08230910581F06B
S113249083309105B9F0019709F029C08EE490E0EA
S11324A020915004FC01208382E0809355021FC0D8
S11324B08EE490E020915104FC01208383E080931A
S11324C0550215C085E290E025E230E0F901208153
S11324D02068FC01208382E290E022E230E0F901EE
S11324E020812860FC012083109255020000000026
S11324F0DF91CF91FF91EF919F918F913F912F9118
S11325000F9000925B000F9000925F000F901F905D
S11325101895CF93DF93CDB7DEB781E290E021E247
S113252030E0F90120812C6FFC01208381E290E0EE
S113253021E230E0F90120812C7FFC01208384E238
S113254090E024E230E0F9012081266FFC01208331
S113255084E290E024E230E0F9012081277FFC014D
S1132560208387E290E02FEFFC0120838AE290E051
S11325702AE230E0F90120812F69FC0120838DE2F9
S113258090E02FEFFC01208380E390E020E330E033
S1132590F9012081217FFC01208383E390E023E380
S11325A030E0F90120812F61FC01208382E290E078
S11325B0FC01108285E290E0FC01108288E290E048
S11325C0FC0110828BE290E0FC0110828EE290E02C
S11325D0FC01108281E390E0FC01108284E390E02E
S11325E0FC01108282E290E022E230E0F9012081D5
S11325F02360FC0120830000DF91CF910895CF93E5
S1132600DF93CDB7DEB784E490E02BE0FC012083B8
S11326108EE690E022E0FC01208387E490E029EF3D
S1132620FC0120830000DF91CF9108951F920F9247
S113263000905F000F9211248F939F93AF93BF93E9
S1132640CF93DF93CDB7DEB781E0809357028091BB
S113265056028F5F8093560280913B0290913C0218
S1132660A0913D02B0913E020196A11DB11D80933F
S11326703B0290933C02A0933D02B0933E020000C3
S1132680DF91CF91BF91AF919F918F910F90009265
S11326905F000F901F9018950CD0E6C0DED040F07C
S11326A0D5D030F021F45F3F19F0C7C0511110C1EB
S11326B0CAC0EBD098F39923C9F35523B1F3951B02
S11326C0550BBB27AA2762177307840738F09F5F4F
S11326D05F4F220F331F441FAA1FA9F333D00E2EBE
S11326E03AF0E0E830D091505040E695001CCAF72B
S11326F029D0FE2F27D0660F771F881FBB1F2617F0
S113270037074807AB07B0E809F0BB0B802DBF01C2
S1132710FF2793585F4F2AF09E3F510568F08DC004
S1132720D7C05F3FECF3983EDCF3869577956795C9
S1132730B795F7959F5FC9F7880F911D9695879573
S113274097F90895E1E0660F771F881FBB1F621792
S113275073078407BA0720F0621B730B840BBA0B50
S1132760EE1F88F7E095089598D088F09F5790F071
S1132770B92F9927B751A0F0D1F0660F771F881FA2
S1132780991F1AF0BA95C9F712C0B13081F09FD0E1
S1132790B1E008959CC0672F782F8827B85F39F07F
S11327A0B93FCCF3869577956795B395D9F73EF401
S11327B090958095709561957F4F8F4F9F4F0895A9
S11327C0E89409C097FB3EF49095809570956195C7
S11327D07F4F8F4F9F4F9923A9F0F92F96E9BB277D
S11327E09395F695879577956795B795F111F8CFF9
S11327F0FAF4BB0F11F460FF1BC06F5F7F4F8F4F64
S11328009F4F16C0882311F096E911C0772321F059
S11328109EE8872F762F05C0662371F096E8862FF1
S113282070E060E02AF09A95660F771F881FDAF748
S1132830880F9695879597F9089597F99F6780E88B
S113284070E060E008959FEF80EC089500240A94FE
S11328501616170618060906089500240A94121677
S11328601306140605060895092E0394000C11F4AA
S1132870882352F0BB0F40F4BF2B11F460FF04C057
S11328806F5F7F4F8F4F9F4F089557FD9058440FB0
S1132890551F59F05F3F71F04795880F97FB991FBB
S11328A061F09F3F79F08795089512161306140678
S11328B0551FF2CF4695F1DF08C016161706180605
S11328C0991FF1CF86957105610508940895E894E0
S11328D0BB2766277727CB0197F908950BD0C4CF80
S11328E0B5DF28F0BADF18F0952309F0A6CFABCFF7
S11328F01124EECFCADFA0F3959FD1F3950F50E0DA
S1132900551F629FF001729FBB27F00DB11D639F9D
S1132910AA27F00DB11DAA1F649F6627B00DA11D43
S1132920661F829F2227B00DA11D621F739FB00DE9
S1132930A11D621F839FA00D611D221F749F332759
S1132940A00D611D231F849F600D211D822F762FF2
S11329506A2F11249F5750408AF0E1F088234AF0EF
S1132960EE0FFF1FBB1F661F771F881F915050403B
S1132970A9F79E3F510570F060CFAACF5F3FECF3FB
S1132980983EDCF3869577956795B795F795E79527
S11329909F5FC1F7FE2B880F911D9695879597F938
S11329A00895AA1BBB1B51E107C0AA1FBB1FA61792
S11329B0B70710F0A61BB70B881F991F5A95A9F7E4
S11329C080959095BC01CD01089597FB072E16F4D0
S11329D0009406D077FD08D0E4DF07FC05D03EF470
S11329E0909581959F4F0895709561957F4F0895B7
S11329F0A1E21A2EAA1BBB1BFD010DC0AA1FBB1FFF
S1132A00EE1FFF1FA217B307E407F50720F0A21B70
S1132A10B30BE40BF50B661F771F881F991F1A94DD
S1132A2069F760957095809590959B01AC01BD0107
S1132A30CF010895A29FB001B39FC001A39F700D61
S1132A40811D1124911DB29F700D811D1124911DB2
S1132A500895FC0101900020E9F7809590958E0F70
S10B2A609F1F0895F894FFCFB5
S1132A683908061700020CC094D4800120202020C5
S1132A7820204449432056302E3120202020202075
S1132A88002020536F6674776172652077726974C9
S1132A9874656E2020002020202020202020206221
S1132AA8792020202020202020200042616C746995
S1132AB86320526163696E6720416C756D6E6900AD
S1132AC8202020416E64206669786564206279203C
S1132AD820202020002020202020204465696E65C5
S1132AE8204D75646461202020002D2D2D2D2D2D61
S1132AF82D2D2D2D2D2D2D2D2D2D2D2D2D2D002034
S1132B0820234D4F534645542D42617262656375C7
S1132B186520200020202020202020202020004381
S1132B284C5421004F4B004C4320414354495645D3
S1052B38000097
S9030000FC
