S00B00006469632E73726563E9
S113000049C0000064C0000062C0000060C000007D
S11300105EC000005CC000005AC0000058C0000070
S113002056C0000054C0000052C0000050C0000080
S11300304EC000004CC000004AC0000048C0000090
S1130040D6C2000044C0000042C0000040C000000E
S11300503EC000003CC000003AC0000038C00000B0
S113006036C0000034C0000032C0000030C00000C0
S11300702EC000002CC000002AC0000028C00000D0
S113008026C0000024C0000022C0000020C00000E0
S11300901EC0000011241FBECFEFD0E1DEBFCDBFD4
S11300A011E0A0E0B1E0E0E9F6E000E00BBF02C03F
S11300B007900D92A43BB107D9F722E0A4EBB1E07D
S11300C001C01D92AA3FB207E1F7F8D1DFC298CF71
S11300D0CF93DF93CDB7DEB727970FB6F894DEBF83
S11300E00FBECDBF8B837D836C834E832F831A8297
S11300F019822EC08B81682F70E08F81282F30E009
S11301008E81482F50E089819A81840F951FEC815C
S1130110FD8149815A814E0F5F1FDA01EC91F4E1B0
S1130120F29FA001F39F500D1124F0E5F69F90017A
S1130130F79F300D1124240F351F820F931F86540F
S11301409E4FDC01EC9389819A8101969A8389837D
S11301508C819D8192D29C0189819A818217930717
S113016048F2000027960FB6F894DEBF0FBECDBF4D
S1130170DF91CF910895CF93DF9300D000D0CDB716
S1130180DEB71A82198256C01C821B8249C089813B
S11301909A8144E1489F9001499F300D11248B813D
S11301A09C81820F931F86549E4F20E1FC01208383
S11301B089819A8144E1489F9001499F300D11241F
S11301C08B819C81820F931F865F9D4F20E1FC01F0
S11301D0208389819A8144E1489F9001499F300D91
S11301E011248B819C81820F931F865A9D4F20E19D
S11301F0FC01208389819A8144E1489F9001499FB1
S1130200300D11248B819C81820F931F86559D4F45
S113021020E1FC0120838B819C8101969C838B834C
S11302208B819C8144970CF4B2CF89819A81019689
S11302309A83898389819A8104970CF4A5CF00005D
S11302400F900F900F900F90DF91CF910895CF935F
S1130250DF9300D000D0CDB7DEB78B836C838EE202
S113026090E02B81FC0120838C81813051F485E264
S113027090E025E230E0F90120812064FC01208334
S113028009C085E290E025E230E0F90120812F7B6E
S1130290FC01208385E290E025E230E0F901208131
S11302A02061FC0120831A82198205C089819A8108
S11302B001969A83898389819A8184369105B4F35E
S11302C085E290E025E230E0F90120812F7EFC01F7
S11302D0208300000F900F900F900F90DF91CF912B
S11302E00895CF93DF931F92CDB7DEB789838091B2
S11302F0B401843128F58981682F70E08091B501BB
S1130300282F30E08091B40191E0980F9093B401CC
S1130310882F90E0E4E1E29FA001E39F500D1124B7
S1130320E0E5E69F9001E79F300D1124240F351F6F
S1130330820F931F86549E4FFC01808161E087DF0A
S11303408091B401843189F48091B501882F90E0C3
S1130350895F9E4FFC01808160E079DF1092B401D7
S11303608091B5018F5F8093B5018091B501843090
S113037011F41092B50100000F90DF91CF91089510
S1130380CF93DF9300D0CDB7DEB71A8219820DC0A8
S113039089819A8180509F4FFC01808160E057DF02
S11303A089819A8101969A83898389819A810797A1
S11303B07CF300000F900F90DF91CF910895CF93BD
S11303C0DF9300D000D0CDB7DEB78091B601909115
S11303D0B701A091B801B091B90189839A83AB8325
S11303E0BC831AC020E040E06BE071E080E070DE86
S11303F021E040E060E271E080E06ADE22E040E07B
S113040065E371E080E064DE23E040E06AE471E0EB
S113041080E05EDE80E065DF89819A81AB81BC810A
S113042084529A4FAF4FBF4F9C01AD018091B601EA
S11304309091B701A091B801B091B901281739077B
S11304404A075B0778F61AC020E040E06FE571E0E8
S113045080E03EDE21E040E064E771E080E038DEE9
S113046022E040E069E871E080E032DE23E040E031
S11304706EE971E080E02CDE80E033DF89819A81CF
S1130480AB81BC818C569E4EAF4FBF4F9C01AD01DA
S11304908091B6019091B701A091B801B091B901D2
S11304A0281739074A075B0778F665DE00000F90C6
S11304B00F900F900F90DF91CF910895CF93DF931A
S11304C0CDB7DEB707D07CD05BDF55DE789477DF1D
S11304D076DFFECFCF93DF93CDB7DEB781E290E036
S11304E021E230E0F90120812C6FFC01208381E2BC
S11304F090E021E230E0F90120812C7FFC0120838F
S113050084E290E024E230E0F9012081266FFC01CE
S1130510208384E290E024E230E0F9012081277F07
S1130520FC01208387E290E02FEFFC0120838AE224
S113053090E02AE230E0F90120812F69FC01208358
S11305408DE290E02FEFFC01208380E390E020E334
S113055030E0F9012081217FFC01208383E390E0D6
S113056023E330E0F90120812F61FC01208382E242
S113057090E0FC01108285E290E0FC01108288E2A8
S113058090E0FC0110828BE290E0FC0110828EE28C
S113059090E0FC01108281E390E0FC01108284E38E
S11305A090E0FC01108282E290E022E230E0F90166
S11305B020812360FC0120830000DF91CF91089506
S11305C0CF93DF93CDB7DEB784E490E02BE0FC015A
S11305D020838EE690E022E0FC01208387E490E013
S11305E029EFFC0120830000DF91CF9108951F9231
S11305F00F9200905F000F92112400905B000F9205
S11306002F933F938F939F93AF93BF93EF93FF9356
S1130610CF93DF93CDB7DEB78091B6019091B70148
S1130620A091B801B091B9010196A11DB11D8093AB
S1130630B6019093B701A093B801B093B90184E3D4
S113064090E024E330E0F901308128E02327FC0125
S113065020830000DF91CF91FF91EF91BF91AF9183
S11306609F918F913F912F910F9000925B000F907B
S113067000925F000F901F901895FC0101900020DC
S1130680E9F7809590958E0F9F1F0895F894FFCFFA
S11306903908061700020CC094D4802020202020A2
S11306A0204449432056302E312020202020200091
S11306B02020536F66747761726520777269747451
S11306C0656E202000202020202020202020627918
S11306D02020202020202020200020202042616C87
S11306E074696320526163696E6721202020004988
S11306F06E697469616C697A696E6720566F6F649C
S11307006F6F2E00204368617267696E67205570B1
S1130710204D616769632E200046696C6C696E67C1
S1130720205570204761736F6C696E652E00202020
S11307304D616B652027656D205749434B45442126
S10707402020000071
S9030000FC
