:1000000049C0000064C0000062C0000060C0000081
:100010005EC000005CC000005AC0000058C0000074
:1000200056C0000054C0000052C0000050C0000084
:100030004EC000004CC000004AC0000048C0000094
:10004000D2C2000044C0000042C0000040C0000016
:100050003EC000003CC000003AC0000038C00000B4
:1000600036C0000034C0000032C0000030C00000C4
:100070002EC000002CC000002AC0000028C00000D4
:1000800026C0000024C0000022C0000020C00000E4
:100090001EC0000011241FBECFEFD0E1DEBFCDBFD8
:1000A00011E0A0E0B1E0ECEBF6E000E00BBF02C035
:1000B00007900D92A430B107D9F721E0A4E0B1E098
:1000C00001C01D92A431B207E1F747D1F5C298CF24
:1000D000CF93DF93CDB7DEB782E290E022E230E04B
:1000E000F90120812F70FC01208384E390E024E358
:1000F00030E0F90120812B7FFC0120830000DF919B
:10010000CF910895CF93DF93CDB7DEB788E290E02B
:10011000FC01108284E390E024E330E0F9012081C7
:100120002C7FFC0120830000DF91CF910895CF93B5
:10013000DF93CDB7DEB729970FB6F894DEBF0FBEB9
:10014000CDBF9D838C837F836E8359874887C0DFB3
:100150002C813D818E819F81A901481B590BCA01C9
:1001600096958795969587959A838983288539856D
:100170008E819F81281B390B89819A81820F931F61
:1001800029813A81B90175D2CB018B838B811816F5
:100190001CF48B8154D002C080E051D0000029961D
:1001A0000FB6F894DEBF0FBECDBFDF91CF9108959B
:1001B000CF93DF93CDB7DEB729970FB6F894DEBFA4
:1001C0000FBECDBF9D838C837F836E835987488705
:1001D00099DF2C813D818E819F81A901481B590B9C
:1001E000CA019C01AFE8B3EE58D2969587959695D3
:1001F0008795969587959A838983288539858E81F9
:100200009F81281B390B89819A81820F931F298135
:100210003A81B9012ED2CB018B838B8118161CF445
:100220008B8149D002C080E046D0000029960FB6ED
:10023000F894DEBF0FBECDBFDF91CF910895CF936D
:10024000DF931F92CDB7DEB7898382E290E022E28E
:1002500030E0F9012081622F2981422F50E02FEFF9
:1002600030E002C0220F331F4A95E2F72095309507
:1002700022953295307F3227207F3227262BFC01B2
:10028000208384E390E024E330E0F9012081622FB1
:100290002981422F50E020E830E002C035952795B3
:1002A0004A95E2F72470262BFC01208300000F9072
:1002B000DF91CF910895CF93DF931F92CDB7DEB733
:1002C000898388E290E028E230E0F9012081622F02
:1002D0002981422F50E02FEF30E002C0359527955D
:1002E0004A95E2F72095262BFC01208384E390E0D9
:1002F00024E330E0F9012081622F398129E3329F24
:10030000212D11242695422F50E02FEF30E002C01E
:10031000220F331F4A95E2F720953095598149E322
:10032000549F412D11244695442F50E002C0220FC6
:10033000331F4A95E2F7422F39812DEC329F212D50
:100340001124269526952695240F262BFC01208323
:1003500000000F90DF91CF910895EF92FF920F93DD
:100360001F93CF93DF93CDB7DEB7B0D025D178946C
:10037000209104013091050140910601509107013F
:100380008091080190910901A0910A01B0910B019F
:1003900079018A01E81AF90A0A0B1B0BD801C70177
:1003A0000A97A105B10508F44DC040911101509183
:1003B000120120910201309103018091000190917E
:1003C0000101B901F5DE8091040190910501A09130
:1003D0000601B09107018093080190930901A09351
:1003E0000A01B0930B01809110018823A1F4809140
:1003F0001101909112018732924020F081E08093A8
:10040000100109C080911101909112010196909301
:1004100012018093110180911001813099F4809133
:100420001101909112018831914018F4109210013D
:1004300009C08091110190911201019790931201CE
:100440008093110120910401309105014091060132
:100450005091070180910C0190910D01A0910E0126
:10046000B0910F0179018A01E81AF90A0A0B1B0BF6
:10047000D801C7014497A105B10508F479CF80914F
:10048000040190910501A0910601B09107018093AC
:100490000C0190930D01A0930E01B0930F01809178
:1004A0001301882F90E0AC0160E070E08CE890E0F0
:1004B0003EDE809113018D3818F01092130158CF51
:1004C000809113018F5F8093130152CFCF93DF93FD
:1004D000CDB7DEB781E290E021E230E0F901208182
:1004E0002C6FFC01208381E290E021E230E0F901F1
:1004F00020812C7FFC01208384E290E024E230E024
:10050000F9012081266FFC01208384E290E024E23F
:1005100030E0F9012081277FFC01208387E290E011
:100520002FEFFC0120838AE290E02AE230E0F9011B
:1005300020812F69FC0120838DE290E02FEFFC01E8
:10054000208380E390E020E330E0F9012081217FE7
:10055000FC01208383E390E023E330E0F901208174
:100560002F61FC01208382E290E0FC01108285E291
:1005700090E0FC01108288E290E0FC0110828BE2A6
:1005800090E0FC0110828EE290E0FC01108281E399
:1005900090E0FC01108284E390E0FC01108282E292
:1005A00090E022E230E0F90120812360FC01208309
:1005B0000000DF91CF910895CF93DF93CDB7DEB7E1
:1005C00084E490E02BE0FC0120838EE690E022E0C2
:1005D000FC01208387E490E029EFFC0120830000E8
:1005E000DF91CF9108951F920F9200905F000F92BC
:1005F000112400905B000F922F933F938F939F9352
:10060000AF93BF93EF93FF93CF93DF93CDB7DEB755
:100610008091040190910501A0910601B09107011C
:100620000196A11DB11D8093040190930501A09333
:100630000601B093070184E390E024E330E0F90180
:10064000308128E02327FC0120830000DF91CF9137
:10065000FF91EF91BF91AF919F918F913F912F911A
:100660000F9000925B000F9000925F000F901F9020
:100670001895AA1BBB1B51E107C0AA1FBB1FA617D9
:10068000B70710F0A61BB70B881F991F5A95A9F73B
:1006900080959095BC01CD010895A29FB001B39FB4
:1006A000C001A39F700D811D1124911DB29F700D7B
:0C06B000811D1124911D0895F894FFCFC6
:0406BC0026021801F9
:00000001FF
