:1000000049C0000066C0000064C0000062C000007B
:1000100060C000005EC000005CC000005AC000006C
:1000200058C0000056C0000054C0000052C000007C
:1000300050C000004EC000004CC000004AC000008C
:100040000C94061046C0000044C0000042C00000EE
:100050000C941E0F3EC000003CC000003AC00000DF
:1000600038C0000036C0000034C0000032C00000BC
:1000700030C000002EC000002CC000002AC00000CC
:1000800028C0000026C0000024C0000022C00000DC
:1000900020C0000011241FBECFEFD0E1DEBFCDBFD6
:1000A00011E0A0E0B1E0E8E7F4E200E00BBF02C03D
:1000B00007900D92A23DB107D9F724E0A2EDB1E07F
:1000C00001C01D92AD33B207E1F70E94FA0C0C9407
:1000D0003A1296CFCF93DF9300D0CDB7DEB788ED3D
:1000E00090E0FC011082198256C08DEE90E02981CB
:1000F000222F30E022953295307F3227207F322721
:100100002860FC0120838EEE90E0FC0110828FEECF
:1001100090E0FC01108280EF90E0FC01108281EF02
:1001200090E0FC01108282EF90E0FC01108283EFEE
:1001300090E0FC01108284EF90E0FC01108285EFDA
:1001400090E0FC01108286EF90E0FC01108287EFC6
:1001500090E0FC0110821A8218C08DEE90E0298197
:10016000222F30E022953295307F3227207F3227B0
:10017000322F2A81232B2860FC0120838AEF90E014
:10018000FC0110828A818F5F8A838A81883028F3FC
:1001900089818F5F898389818F3008F4A6CF82EEB1
:1001A00090E022E0FC01208383EE90E02CE0FC0153
:1001B000208384EE90E027E3FC0120838BED90E028
:1001C000FC01108288ED90E028ED30E0F9012081FB
:1001D0002260FC01208300000F900F90DF91CF91EF
:1001E0000895CF93DF93CDB7DEB780E098E090938A
:1001F000D9028093D8028FEF9FEF9093DB02809318
:10020000DA021092DC0280E096E09093690280931B
:1002100068028FEF9FEF90936B0280936A0281E0F8
:1002200080936C0281E096E090936902809368026B
:100230008FEF9FEF90936B0280936A0282E080932E
:100240006C0280E094E090937602809375028FEFC9
:100250009FEF909378028093770283E080937902F6
:1002600080E194E090938802809387028FEF9FEF64
:1002700090938A028093890284E080938B0280E2CB
:1002800094E09093DE028093DD028FEF9FEF9093D6
:10029000E0028093DF0285E08093E10289E997E044
:1002A0009093AF028093AE028FEF9FEF9093B102D5
:1002B0008093B00286E08093B20288E997E0909341
:1002C0009502809394028FEF9FEF90939702809313
:1002D000960287E08093980287E997E090934C021A
:1002E00080934B028FEF9FEF90934E0280934D02CD
:1002F0008AE080934F0280E095E09093F002809333
:10030000EF028FEF9FEF9093F2028093F1028BE068
:100310008093F30280E092E09093F5028093F402E0
:100320008FEF9FEF9093F7028093F6028CE080931B
:10033000F80281E092E09093B4028093B3028FEFD1
:100340009FEF9093B6028093B5028DE08093B70241
:1003500082E092E09093EB028093EA028FEF9FEFAE
:100360009093ED028093EC028EE08093EE0283E0A6
:1003700092E090937B0280937A028FEF9FEF9093AD
:100380007D0280937C028FE080937E020000DF91EB
:10039000CF910895CF93DF93CDB7DEB70000DF9103
:1003A000CF910895CF93DF93CDB7DEB71092E202DD
:1003B00081E08093E30280E980938C0281E0809366
:1003C0008D0282EC80938E0281E080938F028EE515
:1003D0008093990281E080939A028CE780939B023C
:1003E00081E080939C028CE18093A60282E080935E
:1003F000A70288E98093C80283E08093C90289EF4D
:10040000809360028BE08093610280E680936402B7
:100410001092650280E38093740282E080937502FB
:1004200084E380936D0283E080936E0289E8809379
:10043000D1028AE38093D2021092D3021092D402A6
:100440008AEA8093430280E480934402109245023A
:100450001092460288EC8093470287E78093480217
:1004600081E08093490210924A028FED8093D50279
:100470001092D60280E680935602109257028AE2CA
:100480008093D0028091E2028093D2018091E302B6
:100490008093D3018091D201837080932D021092BA
:1004A000DE0180918D02882F90E0382F22278091E5
:1004B0008C02882F90E0822B932B2AE030E0B90148
:1004C0000E94ED11CB018093DF0180918F02882F74
:1004D00090E0382F222780918E02882F90E0822B87
:1004E000932B2AE030E0B9010E94ED11CB018093FB
:1004F000E00180919A02882F90E0382F2227809186
:100500009902882F90E0822B932B2AE030E0B901EA
:100510000E94ED11CB018093E10180919C02882F14
:1005200090E0382F222780919B02882F90E0822B29
:10053000932B2AE030E0B9010E94ED11CB018093AA
:10054000E2018091A702882F90E0382F2227809126
:10055000A602882F90E0822B932B2AE030E0B9018D
:100560000E94ED11CB019093DD018093DC0180911D
:10057000C902882F90E0382F22278091C802882F47
:1005800090E0822B932B28E230E0B9010E94ED111C
:10059000CB019093DB018093DA018091C102882F17
:1005A00090E0982F8827982F8091C002892B809304
:1005B000E3018091C302882F90E0382F2227809199
:1005C000C202882F90E0822B932B9093E5018093B9
:1005D000E40180917F028093E60180918102882F5F
:1005E00090E0382F222780918002882F90E0822B84
:1005F000932B9093E8018093E7018091830280938D
:10060000E90180916102882F90E0382F22278091A4
:100610006002882F90E0822B932B26E030E0B90116
:100620000E94ED11CB019093D5018093D40180916C
:100630006502882F90E0382F222780916402882F4E
:1006400090E0822B932B9093D9018093D8018091D5
:100650007402882F90E0382F222780917302882F10
:1006600090E0822B932B9093D7018093D6018091B9
:10067000B8028093EA018091D1028093F0018091C9
:10068000D202882F90E09093F2018093F101809143
:10069000D302882F90E0A0E0B0E08093F301909324
:1006A000F401A093F501B093F6018091D402882F54
:1006B00090E0A0E0B0E08093F7019093F801A09360
:1006C000F901B093FA018091F001282F30E0809178
:1006D000F1019091F201982F8827822B932B9C0196
:1006E00040E050E08091F3019091F401A091F50178
:1006F000B091F601DC0199278827282B392B4A2B4A
:100700005B2B8091F7019091F801A091F901B091D4
:10071000FA01B82FAA2799278827822B932BA42B7D
:10072000B52B8093EC019093ED01A093EE01B09373
:10073000EF01809143028093FF0180914402882F52
:1007400090E0909301028093000280914502882FEF
:1007500090E0A0E0B0E08093020290930302A093A7
:100760000402B093050280914602882F90E0A0E039
:10077000B0E08093060290930702A0930802B09322
:1007800009028091FF01282F30E0809100029091B2
:100790000102982F8827822B932B9C0140E050E088
:1007A0008091020290910302A0910402B09105028F
:1007B000DC0199278827282B392B4A2B5B2B80912A
:1007C000060290910702A0910802B0910902B82F89
:1007D000AA2799278827822B932BA42BB52B8093AC
:1007E000FB019093FC01A093FD01B093FE01809169
:1007F000470280930E0280914802882F90E09093E8
:10080000100280930F0280914902882F90E0A0E0AF
:10081000B0E08093110290931202A0931302B09360
:10082000140280914A02882F90E0A0E0B0E080930B
:10083000150290931602A0931702B09318028091AC
:100840000E02282F30E080910F0290911002982F15
:100850008827822B932B9C0140E050E0809111026D
:1008600090911202A0911302B0911402DC01992719
:100870008827282B392B4A2B5B2B809115029091CE
:100880001602A0911702B0911802B82FAA27992733
:100890008827822B932BA42BB52B80930A0290934D
:1008A0000B02A0930C02B0930D028091D602882F08
:1008B00090E0382F22278091D502882F90E0822B5C
:1008C000932B90931A028093190280915702882FDC
:1008D00090E0382F222780915602882F90E0822BBB
:1008E000932B90931C0280931B028091D0028093E3
:1008F000EB018091370290913802809358020000FA
:10090000DF91CF910895EF92FF920F931F93CF93B2
:10091000DF9300D0CDB7DEB789836A8389818A30BF
:1009200008F459C08981282F30E08A81882F90E00F
:10093000820F931F092E000CAA0BBB0BBC01CD012B
:100940000E94EA10DC01CB0180931D0290931E02ED
:10095000A0931F02B09320028981882F90E0092E76
:10096000000CAA0BBB0BBC01CD010E94EA107B015D
:100970008C0180911D0290911E02A0911F02B091E6
:1009800020029C01AD01C801B7010E945410DC0196
:10099000CB0180931D0290931E02A0931F02B0937F
:1009A000200280911D0290911E02A0911F02B09121
:1009B000200220E030E048EC52E4BC01CD010E946E
:1009C0007611DC01CB0180931D0290931E02A0934F
:1009D0001F02B093200280911D0290911E02A091EF
:1009E0001F02B0912002BC01CD010E94BC10DC01AD
:1009F000CB010F900F90DF91CF911F910F91FF903E
:100A0000EF900895CF93DF93CDB7DEB727970FB65A
:100A1000F894DEBF0FBECDBF8B837D836C834E8386
:100A20002F831A8219822EC08B81682F70E08F81EC
:100A3000282F30E08E81482F50E089819A81840FE1
:100A4000951FEC81FD8149815A814E0F5F1FDA01AC
:100A5000EC91F4E1F29FA001F39F500D1124F0E519
:100A6000F69F9001F79F300D1124240F351F820F40
:100A7000931F87509D4FDC01EC9389819A810196E9
:100A80009A8389838C819D810E9431129C01898186
:100A90009A818217930740F2000027960FB6F894C8
:100AA000DEBF0FBECDBFDF91CF910895EF920F93C0
:100AB0001F93CF93DF93CDB7DEB762970FB6F8944D
:100AC000DEBF0FBECDBF8A877C876B874D872E87A1
:100AD0000F87E88A4DB75EB75A8B498B8DB79EB7A3
:100AE0008C012E85822F90E001979E838D83822F2B
:100AF00090E06DB77EB7681B790B0FB6F8947EBF98
:100B00000FBE6DBF8DB79EB7019698878F831982F0
:100B100081E08A8340C04B855C859A01ADECBCECDA
:100B20000E9422129695879596958795969587951A
:100B3000880F991F9C01220F331F220F331F820F32
:100B4000931FDA01A81BB90BCD0189878E85282F49
:100B500030E08A81882F90E0F901E81BF90BCF0182
:100B6000298540E3420F2F813885820F931FDC01D6
:100B70004C938B859C859C01ADECBCEC0E942212B1
:100B80009695879596958795969587959C878B875B
:100B90008A818F5F8A839A818E85891708F0BBCFFF
:100BA0001B821C82C8C08C81882F90E02F813885E1
:100BB000820F931FFC018081803311F081E08B83D1
:100BC00061E08B81882309F060E08C81282F30E080
:100BD0008E85482F50E08D85882F90E0DA01A81B84
:100BE000B90BCD01029741E0281739070CF040E01E
:100BF000862F8423882351F08C81882F90E02F81C9
:100C00003885820F931F20E1FC0120838C81282FDF
:100C100030E08E85482F50E08D85882F90E0BA0116
:100C2000681B790BCB012817390764F58A85682F73
:100C300070E08889282F30E08F85482F50E08C8124
:100C4000882F90E0840F951F4C81442F50E0AF8196
:100C5000B8854A0F5B1FFA01A081B4E1B29FA001E1
:100C6000B39F500D1124B0E5B69F9001B79F300D92
:100C70001124240F351F820F931F87509D4FFC01B5
:100C8000A08356C08981882329F58A85682F70E062
:100C90008889282F30E08F85482F50E08C81882F5D
:100CA00090E0840F951FA4E1A29FA001A39F500D87
:100CB0001124A0E5A69F9001A79F300D1124240FB9
:100CC000351F820F931F87509D4F2EE2DC012C931E
:100CD00081E089838A85682F70E08889282F30E039
:100CE0008F85882F90E0AC014F5F5F4F8C81882FFC
:100CF00090E0840F951F4C81442F50E0AF81B88560
:100D00004A0F5B1FFA01A081B4E1B29FA001B39F1B
:100D1000500D1124B0E5B69F9001B79F300D1124FE
:100D2000240F351F820F931F87509D4FFC01A08316
:100D30008C818F5F8C839C818E85981708F433CFCC
:100D40000FB6F8941EBF0FBE0DBF000049895A8927
:100D50000FB6F8945EBF0FBE4DBF62960FB6F89403
:100D6000DEBF0FBECDBFDF91CF911F910F91EF90EE
:100D700008950F93CF93DF93CDB7DEB763970FB688
:100D8000F894DEBF0FBECDBF8D874E875F87688B1F
:100D9000798B2A8B0B8B8E859F85A889B98928EE44
:100DA00033E040E050E0BC01CD010E940012DC01C4
:100DB000CB019A8389838E859F85A889B98928EE7E
:100DC00033E040E050E0BC01CD010E940012DA01A6
:100DD000C9019C838B838B819C819C01A9E8B8E825
:100DE0000E94221296958795929582958F708927F9
:100DF0009F7089279C838B838E859F85A889B9895D
:100E000028EE33E040E050E0BC01CD010E9400122A
:100E1000DA01C9019E838D834D815E819A01A9E823
:100E2000B8E80E9422129C013695279532952295AA
:100E30002F7023273F7023276CE3629FC001639FBD
:100E4000900D11249A01281B390BC9019E838D83B3
:100E50001F8258C049815A819A01ADECBCEC0E94B6
:100E60002212969587959695879596958795880FE2
:100E7000991F9C01220F331F220F331F820F931FD4
:100E8000FA01E81BF90BCF018B878B85805D8B877F
:100E900089819A819C01ADECBCEC0E94221296954E
:100EA000879596958795969587959A8389838D855D
:100EB000682F70E08B89282F30E08A89882F90E096
:100EC000AC01495F5F4F8F81882F90E0FA01E81BEA
:100ED000F90BCF01E4E1E29FA001E39F500D112443
:100EE000E0E5E69F9001E79F300D1124240F351FA8
:100EF000820F931F87509D4F2B85FC0120838F818C
:100F00008F5F8F838F81833008F4A4CF188658C0F9
:100F10004D815E819A01ADECBCEC0E942212969547
:100F200087959695879596958795880F991F9C012B
:100F3000220F331F220F331F820F931F9A01281B8A
:100F4000390BC9018C878C85805D8C878D819E8152
:100F50009C01ADECBCEC0E9422129695879596956B
:100F60008795969587959E838D838D85682F70E0F4
:100F70008B89282F30E08A89882F90E0AC014D5F63
:100F80005F4F8885882F90E0FA01E81BF90BCF01AD
:100F9000E4E1E29FA001E39F500D1124E0E5E69F0C
:100FA0009001E79F300D1124240F351F820F931FEE
:100FB00087509D4F2C85FC01208388858F5F888713
:100FC0008885823008F4A4CF198666C04B815C8185
:100FD0009A01ADECBCEC0E942212969587959695ED
:100FE000879596958795880F991F9C01220F331F2F
:100FF000220F331F820F931F9A01281B390BC9013F
:101000008A878A85805D8A8731E08A85803309F006
:1010100030E021E08B819C810A9708F020E0832F4B
:101020008223882311F080E18A878B819C819C0137
:10103000ADECBCEC0E94221296958795969587950B
:10104000969587959C838B838D85682F70E08B891F
:10105000282F30E08A89482F50E08985882F90E03A
:10106000FA01E81BF90BCF01E4E1E29FA001E39F45
:10107000500D1124E0E5E69F9001E79F300D11240B
:10108000240F351F820F931F87509D4F2A85FC0127
:10109000208389858F5F89878985823008F496CF80
:1010A000000063960FB6F894DEBF0FBECDBFDF9190
:1010B000CF910F910895CF93DF9300D000D0CDB79B
:1010C000DEB71A82198256C01C821B8249C08981F0
:1010D0009A8144E1489F9001499F300D11248B81F2
:1010E0009C81820F931F87509D4F20E1FC0120833C
:1010F00089819A8144E1489F9001499F300D1124D4
:101100008B819C81820F931F875B9C4F20E1FC01A8
:10111000208389819A8144E1489F9001499F300D45
:1011200011248B819C81820F931F87569C4F20E155
:10113000FC01208389819A8144E1489F9001499F65
:10114000300D11248B819C81820F931F87519C4FFE
:1011500020E1FC0120838B819C8101969C838B8301
:101160008B819C8144970CF4B2CF89819A8101963E
:101170009A83898389819A8104970CF4A5CF000012
:101180000F900F900F900F90DF91CF910895CF9314
:10119000DF93CDB7DEB784E58093F90283E58093D2
:1011A000FA0286E58093FB0283E58093030380E5E2
:1011B0008093040384E48093050383E480930D0308
:1011C0008FE480930E038FE480930F038CE480936D
:1011D000100381E48093170383E48093180384E56C
:1011E0008093190382E48093210382E48093220395
:1011F00083E580932B038FE480932C0383E4809317
:101200002D038CE480933F0386E58093400383E5C0
:101210008093410386E5809301038BE480930A0366
:101220008DE480930B0388E480930C0383E4809324
:10123000150383E480931E038DE28093290385E2E6
:101240008093320386E58093460384E580934903C7
:1012500080E580934A0383E580934B0381E3809389
:101260004C0382E38093530381E480935D0380E524
:1012700080935E0383E580935F0381E38093600343
:1012800082E38093670384E58093710380E5809314
:10129000720383E58093730385E48093740382E48F
:1012A0008093850380E58093860386E4809387039B
:1012B00082E580938D0385E28093510385E28093DC
:1012C000650385E28093790385E28093580385E284
:1012D00080936C0382E480938B0382E48093910378
:1012E00084E58093990383E480939A0382E4809356
:1012F000AD0385E48093AE0383E58093AF0380E57F
:101300008093C10382E58093C20385E48093C30385
:101310008CE48093D5038EE48093D60383E5809399
:101320009E0380E580939F0385E48093A00384E47B
:101330008093A1038BE48093A6038DE48093A7039D
:1013400088E48093A8038FE48093DB0384E4809394
:10135000DC038FE48093DD038BE48093E2038DE470
:101360008093E3038AE38093B2038AE38093B50317
:101370008AE38093C6038AE38093C9030000DF9168
:10138000CF910895CF93DF9300D01F92CDB7DEB7F2
:101390008B8319821A8222C08B81882F90E02A8148
:1013A000222F30E002C0959587952A95E2F781704B
:1013B00099272A81222F30E047E050E0BA01621BD2
:1013C000730B9B0102C0880F991F2A95E2F7982F93
:1013D0008981892B89838A818F5F8A838A8188307A
:1013E000D8F289810F900F900F90DF91CF910895DF
:1013F000CF93DF93CDB7DEB782E290E022E230E018
:10140000F90120812F70FC01208384E390E024E324
:1014100030E0F90120812B7FFC0120830000DF9167
:10142000CF910895CF93DF93CDB7DEB729970FB64D
:10143000F894DEBF0FBECDBF9D838C837F836E8308
:1014400059874887D5DF2C813D818E819F81A901F5
:10145000481B590BCA0196958795969587959A834F
:101460008983288539858E819F81281B390B898145
:101470009A81820F931F29813A81B9019AD7CB01B2
:101480008B838B8118161CF48B810DD002C080E0F9
:101490000AD0000029960FB6F894DEBF0FBECDBF6C
:1014A000DF91CF910895CF93DF931F92CDB7DEB731
:1014B000898382E290E022E230E0F9012081622F0C
:1014C0002981422F50E02FEF30E002C0220F331F5E
:1014D0004A95E2F72095309522953295307F322754
:1014E000207F3227262BFC01208384E390E024E335
:1014F00030E0F9012081622F2981422F50E020E85D
:1015000030E002C0359527954A95E2F72470262BE6
:10151000FC01208300000F90DF91CF9108950F937D
:101520001F93CF93DF9300D000D0CDB7DEB78B836E
:101530006C830EE210E08B8125DFF80180838C81C3
:10154000813051F485E290E025E230E0F90120811C
:101550002064FC01208309C085E290E025E230E0B0
:10156000F90120812F7BFC01208385E290E025E2B8
:1015700030E0F90120812061FC0120831A82198268
:1015800005C089819A8101969A83898389819A818C
:1015900084369105B4F385E290E025E230E0F9016C
:1015A00020812F7EFC01208300000F900F900F9070
:1015B0000F90DF91CF911F910F9108958F92AF926D
:1015C000CF92EF920F93CF93DF93CDB7DEB72997EA
:1015D0000FB6F894DEBF0FBECDBF89836A834B83FD
:1015E0002C830D83EE82CF82A88689868981882FFD
:1015F00090E00896880F880F880F60E090DF61E028
:101600008A818DDF61E08B818ADF61E08C8187DFF9
:1016100061E08D8184DF61E08E8181DF61E08F8117
:101620007EDF61E088857BDF61E0898578DF60E0CF
:1016300082E075DF000029960FB6F894DEBF0FBE7A
:10164000CDBFDF91CF910F91EF90CF90AF908F9062
:101650000895CF93DF931F92CDB7DEB78983809132
:101660002102843128F58981682F70E0809122025F
:10167000282F30E08091210291E0980F9093210271
:10168000882F90E0E4E1E29FA001E39F500D112438
:10169000E0E5E69F9001E79F300D1124240F351FF0
:1016A000820F931F87509D4FFC01808161E037DFDF
:1016B00080912102843189F480912202882F90E068
:1016C000895F9E4FFC01808160E029DF109221023A
:1016D000809122028F5F80932202809122028430C7
:1016E00011F41092220200000F90DF91CF91089523
:1016F0008F92AF92CF92EF920F93CF93DF93CDB7AC
:10170000DEB70F2EFFE18F2EF02D0F2EFFE1AF2E53
:10171000F02D0F2EFFE1CF2EF02DE12C00E020E088
:1017200040E060E080E04ADF812CA12CC12CE12C5C
:1017300000E020E04FE16FE181E040DF0F2EFFEE9F
:101740008F2EF02D0F2EFFEEAF2EF02D0F2EFFEE71
:10175000CF2EF02D0F2EFFEEEF2EF02D0FEE2FEEF1
:101760004FEE6FEE82E02ADF0F2EFEE18F2EF02D7E
:101770000F2EFEE1AF2EF02D0F2EFEE1CF2EF02D1D
:101780000F2EFEE1EF2EF02D0EE12EE14EE16EE187
:1017900083E014DF812CA12CC12CE12C0FEF2FEF63
:1017A0004FEF6FEF84E00ADF0F2EFFEE8F2EF02D4C
:1017B0000F2EFFEEAF2EF02D0F2EFFEECF2EF02DC1
:1017C0000F2EFFEEEF2EF02D0FEF2FEF4FEF6FEFFD
:1017D00085E0F4DE812C6894AA24A1F80F2EF5E1AF
:1017E000CF2EF02D0F2EFAE0EF2EF02D04E02AE0A0
:1017F00045E168E086E0E2DE0000DF91CF910F91E5
:10180000EF90CF90AF908F900895CF93DF9300D05B
:10181000CDB7DEB71A8219820DC089819A818050B6
:101820009F4FFC01808160E07ADE89819A81019678
:101830009A83898389819A8107977CF300000F90AE
:101840000F90DF91CF910895CF93DF9300D000D018
:10185000CDB7DEB780912F0290913002A091310276
:10186000B091320289839A83AB83BC831AC020E093
:1018700040E06CE071E080E0C5D821E040E061E24A
:1018800071E080E0BFD822E040E066E371E080E0F4
:10189000B9D823E040E06BE471E080E0B3D880E0A9
:1018A000D8DE89819A81AB81BC8184529A4FAF4F37
:1018B000BF4F9C01AD0180912F0290913002A09109
:1018C0003102B0913202281739074A075B0778F6D0
:1018D0001AC020E040E060E671E080E093D821E0AB
:1018E00040E065E771E080E08DD822E040E06AE802
:1018F00071E080E087D823E040E06FE971E080E0AC
:1019000081D880E0A6DE89819A81AB81BC818C562A
:101910009E4EAF4FBF4F9C01AD0180912F02909121
:101920003002A0913102B0913202281739074A07DC
:101930005B0778F6C0DB00000F900F900F900F90C0
:10194000DF91CF910895CF93DF931F92CDB7DEB78C
:10195000198223E030E040E050E064EB71E080E089
:1019600090E050D88091DC019091DD0183379105A2
:1019700070F08981882F90E023E030E0AC016FEBBC
:1019800071E080E090E03ED889818C5F898380910E
:10199000DC019091DD0131E0CC9708F430E08981E1
:1019A000882F90E0049621E00B9708F020E0832F29
:1019B0008223882371F08981882F90E023E030E032
:1019C000AC016FEB71E080E090E01CD889818C5F06
:1019D00089838981882349F423E030E040E050E0A6
:1019E00064EC71E080E090E00DD800000F90DF9192
:1019F000CF910895EF92FF920F931F93CF93DF93B0
:101A0000CDB7DEB776D2EBD20E94F100FEDE70DEFB
:101A10000E946A0050DB789417DFB9DB44E050E0A5
:101A200060E070E085E090E0FDDC80914102813271
:101A300008F4D1C11092410280912D02882309F04F
:101A40003AC18091D4019091D501E12C05E023E0C9
:101A500040E0BC0180E02AD880911B0290911C02DA
:101A6000E12C0EE023E040E0BC0180E01FD8809133
:101A7000DC019091DD01EE24E39406E022E040E0F9
:101A8000BC0180E013D88091D6019091D701EE245B
:101A9000E3940FE022E040E0BC0180E007D88091B1
:101AA000D8019091D9016894EE24E1F80EE023E08A
:101AB00040E0BC0180E00E9456058091DA019091DF
:101AC000DB010F2EF3E0EF2EF02D0FE022E040E0DF
:101AD000BC0180E00E9456058091D301882371F4F7
:101AE00022E040E067EC71E080E00E94020581E0C6
:101AF00080930B0181E0809337022BC01092370254
:101B000080910B01882391F080E18093230380E191
:101B10008093240380E18093250380E18093260352
:101B200080910B01815080930B0131DB9091E20198
:101B30008091E101692F0E948304882F90E06894CE
:101B4000EE24E1F806E022E040E0BC0180E00E94E3
:101B500056052091EC013091ED014091EE0150913C
:101B6000EF018091FB019091FC01A091FD01B091EA
:101B7000FE0179018A01E81AF90A0A0B1B0BD80148
:101B8000C7018093380290933902A0933A02B09330
:101B90003B0220913C0230913D0240913E02509127
:101BA0003F028091380290913902A0913A02B0919F
:101BB0003B02281739074A075B07A1F180912F02E2
:101BC00090913002A0913102B091320280933302A1
:101BD00090933402A0933502B09336028091330281
:101BE00090913402A0913502B091360288579C4EF4
:101BF000AF4FBF4F8093330290933402A0933502CE
:101C0000B09336028091380290913902A0913A0245
:101C1000B0913B0280933C0290933D02A0933E0220
:101C2000B0933F022091330230913402409135024B
:101C30005091360280912F0290913002A091310292
:101C4000B091320282179307A407B50760F580911F
:101C5000380290913902A0913A02B0913B02992347
:101C60001CF4919581959109092E000CAA0BBB0BD0
:101C700003E021E0AC01BD0180E07BD88AE38093E2
:101C80003A038091380290913902A0913A02B091C2
:101C90003B02BB2324F08BE2809335030CC08DE222
:101CA0008093350308C04FDE23E040E063E272E03A
:101CB00080E00E94020580912D028130C1F5809163
:101CC000DF01882F90E0EE24E39405E023E040E07C
:101CD000BC0181E00E9456058091E001882F90E0D0
:101CE000EE24E3940CE023E040E0BC0181E00E949C
:101CF00056058091E101882F90E00F2EF3E0EF2E42
:101D0000F02D04E022E040E0BC0181E00E94560595
:101D10008091E201882F90E00F2EF3E0EF2EF02D5E
:101D20000AE022E040E0BC0181E00E94560580917B
:101D30002D02823009F04FC08091FB019091FC018F
:101D4000A091FD01B091FE0101E024E0AC01BD01D4
:101D500082E00FD880910A0290910B02A0910C02B0
:101D6000B0910D0202E024E0AC01BD0182E001D897
:101D70008091190290911A020F2EF3E0EF2EF02DB0
:101D80000AE023E040E0BC0182E00E945605E12C1D
:101D900003E021E040E069E070E082E00E94560547
:101DA0008091EB01882F90E00F2EF3E0EF2EF02DC5
:101DB00003E022E040E0BC0182E00E9456058091F1
:101DC0001B0290911C02E12C0AE023E040E0BC01E0
:101DD00082E00E94560580914202882329F080917A
:101DE0002D0237DC1092420220912F0230913002F6
:101DF000409131025091320280912E02882F90E062
:101E0000A0E0B0E079018A01E81AF90A0A0B1B0B7D
:101E1000D801C7010A97A105B10508F406CE0E94B2
:101E2000CA010E94D20180912F0290913002A091AC
:101E30003102B091320280932E02F7CD1F920F92A1
:101E400000905F000F92112400905B000F922F937F
:101E50003F938F939F93EF93FF93CF93DF93CDB7F0
:101E6000DEB780914002882F90E08230910581F0AA
:101E700083309105B9F0019709F029C08EE490E014
:101E800020913B04FC01208382E0809340021FC02C
:101E90008EE490E020913C04FC01208383E0809359
:101EA000400215C085E290E025E230E0F901208192
:101EB0002068FC01208382E290E022E230E0F90118
:101EC00020812860FC012083109240020000000065
:101ED000DF91CF91FF91EF919F918F913F912F9142
:101EE0000F9000925B000F9000925F000F901F9088
:101EF0001895CF93DF93CDB7DEB781E290E021E272
:101F000030E0F90120812C6FFC01208381E290E018
:101F100021E230E0F90120812C7FFC01208384E262
:101F200090E024E230E0F9012081266FFC0120835B
:101F300084E290E024E230E0F9012081277FFC0177
:101F4000208387E290E02FEFFC0120838AE290E07B
:101F50002AE230E0F90120812F69FC0120838DE223
:101F600090E02FEFFC01208380E390E020E330E05D
:101F7000F9012081217FFC01208383E390E023E3AA
:101F800030E0F90120812F61FC01208382E290E0A2
:101F9000FC01108285E290E0FC01108288E290E072
:101FA000FC0110828BE290E0FC0110828EE290E056
:101FB000FC01108281E390E0FC01108284E390E058
:101FC000FC01108282E290E022E230E0F9012081FF
:101FD0002360FC0120830000DF91CF910895CF930F
:101FE000DF93CDB7DEB784E490E02BE0FC012083E3
:101FF0008EE690E022E0FC01208387E490E029EF68
:10200000FC0120830000DF91CF9108951F920F9271
:1020100000905F000F92112400905B000F922F93AD
:102020003F938F939F93AF93BF93EF93FF93CF9380
:10203000DF93CDB7DEB781E0809342028091410209
:102040008F5F8093410280912F0290913002A09186
:102050003102B09132020196A11DB11D80932F0271
:1020600090933002A0933102B093320284E390E067
:1020700024E330E0F901308128E02327FC012083AC
:102080000000DF91CF91FF91EF91BF91AF919F91B0
:102090008F913F912F910F9000925B000F900092D3
:1020A0005F000F901F9018950CD0E6C0DED040F076
:1020B000D5D030F021F45F3F19F0C7C0511110C1E5
:1020C000CAC0EBD098F39923C9F35523B1F3951BFC
:1020D000550BBB27AA2762177307840738F09F5F49
:1020E0005F4F220F331F441FAA1FA9F333D00E2EB8
:1020F0003AF0E0E830D091505040E695001CCAF725
:1021000029D0FE2F27D0660F771F881FBB1F2617E9
:1021100037074807AB07B0E809F0BB0B802DBF01BC
:10212000FF2793585F4F2AF09E3F510568F08DC0FE
:10213000D7C05F3FECF3983EDCF3869577956795C3
:10214000B795F7959F5FC9F7880F911D969587956D
:1021500097F90895E1E0660F771F881FBB1F62178C
:1021600073078407BA0720F0621B730B840BBA0B4A
:10217000EE1F88F7E095089598D088F09F5790F06B
:10218000B92F9927B751A0F0D1F0660F771F881F9C
:10219000991F1AF0BA95C9F712C0B13081F09FD0DB
:1021A000B1E008959CC0672F782F8827B85F39F079
:1021B000B93FCCF3869577956795B395D9F73EF4FB
:1021C00090958095709561957F4F8F4F9F4F0895A3
:1021D000E89409C097FB3EF49095809570956195C1
:1021E0007F4F8F4F9F4F9923A9F0F92F96E9BB2777
:1021F0009395F695879577956795B795F111F8CFF3
:10220000FAF4BB0F11F460FF1BC06F5F7F4F8F4F5D
:102210009F4F16C0882311F096E911C0772321F053
:102220009EE8872F762F05C0662371F096E8862FEB
:1022300070E060E02AF09A95660F771F881FDAF742
:10224000880F9695879597F9089597F99F6780E885
:1022500070E060E008959FEF80EC089500240A94F8
:102260001616170618060906089500240A94121671
:102270001306140605060895092E0394000C11F4A4
:10228000882352F0BB0F40F4BF2B11F460FF04C051
:102290006F5F7F4F8F4F9F4F089557FD9058440FAA
:1022A000551F59F05F3F71F04795880F97FB991FB5
:1022B00061F09F3F79F08795089512161306140672
:1022C000551FF2CF4695F1DF08C0161617061806FF
:1022D000991FF1CF86957105610508940895E894DA
:1022E000BB2766277727CB0197F908950BD0C4CF7A
:1022F000B5DF28F0BADF18F0952309F0A6CFABCFF1
:102300001124EECFCADFA0F3959FD1F3950F50E0D3
:10231000551F629FF001729FBB27F00DB11D639F97
:10232000AA27F00DB11DAA1F649F6627B00DA11D3D
:10233000661F829F2227B00DA11D621F739FB00DE3
:10234000A11D621F839FA00D611D221F749F332753
:10235000A00D611D231F849F600D211D822F762FEC
:102360006A2F11249F5750408AF0E1F088234AF0E9
:10237000EE0FFF1FBB1F661F771F881F9150504035
:10238000A9F79E3F510570F060CFAACF5F3FECF3F5
:10239000983EDCF3869577956795B795F795E79521
:1023A0009F5FC1F7FE2B880F911D9695879597F932
:1023B0000895AA1BBB1B51E107C0AA1FBB1FA6178C
:1023C000B70710F0A61BB70B881F991F5A95A9F7DE
:1023D00080959095BC01CD01089597FB072E16F4CA
:1023E000009406D077FD08D0E4DF07FC05D03EF46A
:1023F000909581959F4F0895709561957F4F0895B1
:10240000A1E21A2EAA1BBB1BFD010DC0AA1FBB1FF8
:10241000EE1FFF1FA217B307E407F50720F0A21B6A
:10242000B30BE40BF50B661F771F881F991F1A94D7
:1024300069F760957095809590959B01AC01BD0101
:10244000CF010895A29FB001B39FC001A39F700D5B
:10245000811D1124911DB29F700D811D1124911DAC
:102460000895FC0101900020E9F7809590958E0F6A
:082470009F1F0895F894FFCFAF
:102478003908061700020CC094D4800120202020BF
:1024880020204449432056302E312020202020206F
:10249800002020536F6674776172652077726974C3
:1024A80074656E202000202020202020202020621B
:1024B8007920202020202020202000202020426178
:1024C8006C74696320526163696E67212020200063
:1024D800496E697469616C697A696E6720566F6FB5
:1024E800646F6F2E00204368617267696E672055BC
:1024F80070204D616769632E2000202046696C6C4E
:10250800696E6720557020536D6F6B652020002021
:10251800204D616B652027656D205749434B454425
:1025280021202000202020202020202020200043BF
:102538004C5421004F4B004C4320414354495645CD
:02254800000091
:00000001FF
