S00B00006469632E73726563E9
S113000049C0000066C0000064C0000062C0000077
S113001060C000005EC000005CC000005AC0000068
S113002058C0000056C0000054C0000052C0000078
S113003050C000004EC000004CC000004AC0000088
S11300400C94091346C0000044C0000042C00000E4
S11300500C9421123EC000003CC000003AC00000D5
S113006038C0000036C0000034C0000032C00000B8
S113007030C000002EC000002CC000002AC00000C8
S113008028C0000026C0000024C0000022C00000D8
S113009020C0000011241FBECFEFD0E1DEBFCDBFD2
S11300A011E0A0E0B1E0EEE7FAE200E00BBF02C02D
S11300B007900D92A23DB107D9F724E0A2EDB1E07B
S11300C001C01D92AB34B207E1F70E94E20E0C941A
S11300D03D1596CFCF93DF9300D0CDB7DEB78A839B
S11300E019828A818830C0F08DED90E0FC01808116
S11300F0882F90E02A81222F30E02850310902C055
S1130100959587952A95E2F78170992721E0892BA7
S113011009F020E0298315C08CED90E0FC0180817A
S1130120882F90E02A81222F30E002C09595879590
S11301302A95E2F78170992721E0892B09F020E0C4
S1130140298389810F900F90DF91CF910895CF93E8
S1130150DF9300D0CDB7DEB788ED90E0FC011082CC
S1130160198256C08DEE90E02981222F30E022952D
S11301703295307F3227207F32272860FC0120838C
S11301808EEE90E0FC0110828FEE90E0FC01108274
S113019080EF90E0FC01108281EF90E0FC0110827E
S11301A082EF90E0FC01108283EF90E0FC0110826A
S11301B084EF90E0FC01108285EF90E0FC01108256
S11301C086EF90E0FC01108287EF90E0FC01108242
S11301D01A8218C08DEE90E02981222F30E02295FA
S11301E03295307F3227207F3227322F2A81232BEA
S11301F02860FC0120838AEF90E0FC0110828A8150
S11302008F5F8A838A81883028F389818F5F89830D
S113021089818F3008F4A6CF82EE90E022E0FC01C1
S1130220208383EE90E02CE0FC01208384EE90E0B8
S113023027E3FC0120838BED90E0FC01108288ED24
S113024090E028ED30E0F90120812260FC01208358
S113025000000F900F90DF91CF910895CF93DF931B
S113026000D000D01F92CDB7DEB79B838A837D83F5
S11302706C838DEE90E02A813B81F90124812295E3
S1130280207FFC0120838A819B81FC01848122DF01
S1130290882309F450C083EF90E02A813B81F9015F
S11302A02081318136952795369527953695279562
S11302B0FC01208382EF90E02A813B81F9012081B7
S11302C031812295220F207EFC01208381EF90E072
S11302D0FC01108280EF90E024E0FC01208387EF92
S11302E090E02A813B81F90122813381369527955B
S11302F03695279536952795FC01208386EF90E067
S11303002A813B81F901228133812295220F207EAB
S1130310FC01208385EF90E0FC01108284EF90E0E3
S1130320FC0110828FEE90E028ECFC0120838EEE1D
S113033090E0FC011082198224C08DEE90E02A81A5
S11303403B81F9012481222F30E022953295307FC0
S11303503227207F3227322F2981232B2860FC016A
S113036020838981882F90E02C813D81820F931F07
S11303702AEF30E0F9012081FC01208389818F5F1D
S1130380898389818830C8F200000F900F900F9004
S11303900F900F90DF91CF910895CF93DF9300D00A
S11303A000D01F92CDB7DEB79B838A837D836C8395
S11303B0198224C08DEE90E02A813B81F9012481C9
S11303C0222F30E022953295307F3227207F32274A
S11303D0322F2981232B2860FC0120838AEF90E0AF
S11303E02981222F30E04C815D81240F351FF901D2
S11303F02081FC01208389818F5F898389818830F2
S1130400C8F28DEE90E02A813B81F9012481229586
S1130410207FFC0120838A819B81FC0184815ADE38
S1130420882309F444C08EEE90E0FC01108283EF2F
S113043090E02A813B81F90120813181369527950D
S11304403695279536952795FC01208382EF90E019
S11304502A813B81F901208131812295220F207E5E
S1130460FC01208381EF90E0FC01108280EF90E09A
S1130470FC01108287EF90E0FC01108286EF90E08F
S1130480FC01108285EF90E0FC01108284EF90E083
S1130490FC0110828EEE90E0FC0110828FEE90E061
S11304A028E4FC0120838EEE90E0FC011082000021
S11304B00F900F900F900F900F90DF91CF910895B0
S11304C0CF93DF93CDB7DEB780E098E09093E70257
S11304D08093E6028FEF9FEF9093E9028093E80206
S11304E01092EA0280E096E090937702809376027D
S11304F08FEF9FEF909379028093780281E080934D
S11305007A0281E096E090937702809376028FEFEF
S11305109FEF909379028093780282E080937A022D
S113052080E094E090938402809383028FEF9FEFA6
S1130530909386028093850283E08093870280E112
S113054094E090939602809395028FEF9FEF90939F
S113055098028093970284E08093990280E294E069
S11305609093EC028093EB028FEF9FEF9093EE0257
S11305708093ED0285E08093EF0289E997E0909300
S1130580BD028093BC028FEF9FEF9093BF028093D4
S1130590BE0286E08093C00288E997E09093A302AC
S11305A08093A2028FEF9FEF9093A5028093A40201
S11305B087E08093A60287E997E090935A0280939C
S11305C059028FEF9FEF90935C0280935B028AE065
S11305D080935D0280E095E09093FE028093FD029B
S11305E08FEF9FEF909300038093FF028BE0809343
S11305F0010380E092E090930303809302038FEF62
S11306009FEF90930503809304038CE0809306038B
S113061081E092E09093C2028093C1028FEF9FEF3A
S11306209093C4028093C3028DE08093C50282E05C
S113063092E09093F9028093F8028FEF9FEF9093EA
S1130640FB028093FA028EE08093FC0283E092E046
S113065090938902809388028FEF9FEF90938B028F
S113066080938A028FE080938C020000DF91CF9107
S11306700895CF93DF93CDB7DEB760EF72E086EED7
S113068092E0ECDD66ED72E086E792E0E7DD6EEC89
S113069072E08FEA92E0E2DD6AE972E083E892E0D8
S11306A0DDDD67EA72E085E992E0D8DD64EB72E0B3
S11306B08BEE92E0D3DD6EED72E08CEB92E0CEDD5A
S11306C061E572E082EA92E0C9DD6EE572E089E5F7
S11306D092E0C4DD6DE872E082E093E0BFDD6EE697
S11306E072E081EC92E0BADD6BE772E088EF92E0B1
S11306F0B5DD66EC72E088E892E0B0DD66E672E0B3
S11307008DEF92E04ADE0000DF91CF910895CF9300
S1130710DF93CDB7DEB78091F0028093D201809150
S1130720F1028093D3018091D201837080933202CD
S11307301092DE0180919B02882F90E0382F2227AF
S113074080919A02882F90E0822B932B2AE030E04C
S1130750B9010E94F014CB018093DF0180919D02C6
S1130760882F90E0382F222780919C02882F90E0D8
S1130770822B932B2AE030E0B9010E94F014CB01C4
S11307808093E0018091A802882F90E0382F2227DF
S11307908091A702882F90E0822B932B2AE030E0EF
S11307A0B9010E94F014CB018093E1018091AA0267
S11307B0882F90E0382F22278091A902882F90E07B
S11307C0822B932B2AE030E0B9010E94F014CB0174
S11307D08093E2018091B502882F90E0382F222780
S11307E08091B402882F90E0822B932B2AE030E092
S11307F0B9010E94F014CB019093DD018093DC01D8
S11308008091D702882F90E0382F22278091D6023A
S1130810882F90E0822B932B28E230E0B9010E94CC
S1130820F014CB019093DB018093DA018091CF0225
S1130830882F90E0982F8827982F8091CE02892BBB
S11308408093E3018091D102882F90E0382F2227F2
S11308508091D002882F90E0822B932B9093E50116
S11308608093E40180918D028093E60180918F0250
S1130870882F90E0382F222780918E02882F90E0D5
S1130880822B932B9093E8018093E701809191024E
S11308908093E90180916F02882F90E0382F2227FE
S11308A080916E02882F90E0822B932B26E030E01B
S11308B0B9010E94F014CB019093D5018093D40127
S11308C080917302882F90E0382F22278091720242
S11308D0882F90E0822B932B9093D9018093D80199
S11308E080918202882F90E0382F22278091810204
S11308F0882F90E0822B932B9093D7018093D6017D
S11309008091C6028093EA018091DF028093F00116
S11309108091E002882F90E09093F2018093F1019E
S11309208091E102882F90E0A0E0B0E08093F30191
S11309309093F401A093F501B093F6018091E20243
S1130940882F90E0A0E0B0E08093F7019093F80145
S1130950A093F901B093FA018091F001282F30E0BF
S11309608091F1019091F201982F8827822B932B8B
S11309709C0140E050E08091F3019091F401A0913A
S1130980F501B091F601DC0199278827282B392B32
S11309904A2B5B2B8091F7019091F801A091F9010A
S11309A0B091FA01B82FAA2799278827822B932B75
S11309B0A42BB52B8093EC019093ED01A093EE0151
S11309C0B093EF01809151028093FF018091520214
S11309D0882F90E09093010280930002809153024B
S11309E0882F90E0A0E0B0E080930202909303028D
S11309F0A0930402B093050280915402882F90E0E2
S1130A00A0E0B0E08093060290930702A09308024E
S1130A10B09309028091FF01282F30E080910002F9
S1130A2090910102982F8827822B932B9C0140E000
S1130A3050E08091020290910302A0910402B091CF
S1130A400502DC0199278827282B392B4A2B5B2B9D
S1130A508091060290910702A0910802B0910902C8
S1130A60B82FAA2799278827822B932BA42BB52B41
S1130A708093FB019093FC01A093FD01B093FE01D0
S1130A808091550280930E0280915602882F90E047
S1130A909093100280930F0280915702882F90E068
S1130AA0A0E0B0E08093110290931202A09313028D
S1130AB0B093140280915802882F90E0A0E0B0E037
S1130AC08093150290931602A0931702B093180214
S1130AD080910E02282F30E080910F029091100235
S1130AE0982F8827822B932B9C0140E050E0809123
S1130AF0110290911202A0911302B0911402DC0130
S1130B0099278827282B392B4A2B5B2B8091150298
S1130B1090911602A0911702B0911802B82FAA273B
S1130B2099278827822B932BA42BB52B80930A0219
S1130B3090930B02A0930C02B0930D028091E402F7
S1130B40882F90E0382F22278091E302882F90E0AD
S1130B50822B932B90931A02809319028091650241
S1130B60882F90E0382F222780916402882F90E00C
S1130B70822B932B90931C0280931B028091DE02A4
S1130B808093EB0180913C0290913D028093660238
S1130B900000DF91CF910895EF92FF920F931F937E
S1130BA0CF93DF9300D0CDB7DEB789836A83898181
S1130BB08A3008F459C08981282F30E08A81882F2F
S1130BC090E0820F931F092E000CAA0BBB0BBC01F3
S1130BD0CD010E94ED13DC01CB0180931D029093A3
S1130BE01E02A0931F02B09320028981882F90E0F7
S1130BF0092E000CAA0BBB0BBC01CD010E94ED1306
S1130C007B018C0180911D0290911E02A0911F0214
S1130C10B09120029C01AD01C801B7010E94571395
S1130C20DC01CB0180931D0290931E02A0931F024E
S1130C30B093200280911D0290911E02A0911F0288
S1130C40B091200220E030E048EC52E4BC01CD0138
S1130C500E947914DC01CB0180931D0290931E0243
S1130C60A0931F02B093200280911D0290911E0256
S1130C70A0911F02B0912002BC01CD010E94BF13BC
S1130C80DC01CB010F900F90DF91CF911F910F9159
S1130C90FF90EF900895CF93DF93CDB7DEB72797FA
S1130CA00FB6F894DEBF0FBECDBF8B837D836C83FC
S1130CB04E832F831A8219822EC08B81682F70E095
S1130CC08F81282F30E08E81482F50E089819A81CE
S1130CD0840F951FEC81FD8149815A814E0F5F1F5E
S1130CE0DA01EC91F4E1F29FA001F39F500D11247D
S1130CF0F0E5F69F9001F79F300D1124240F351F66
S1130D00820F931F895F9C4FDC01EC9389819A8148
S1130D1001969A8389838C819D810E9434159C015C
S1130D2089819A818217930740F2000027960FB6B3
S1130D30F894DEBF0FBECDBFDF91CF910895EF923F
S1130D400F931F93CF93DF93CDB7DEB762970FB6A0
S1130D50F894DEBF0FBECDBF8A877C876B874D8733
S1130D602E870F87E88A4DB75EB75A8B498B8DB7AC
S1130D709EB78C012E85822F90E001979E838D83F0
S1130D80822F90E06DB77EB7681B790B0FB6F8948D
S1130D907EBF0FBE6DBF8DB79EB7019698878F83B8
S1130DA0198281E08A8340C04B855C859A01ADEC51
S1130DB0BCEC0E94251596958795969587959695F2
S1130DC08795880F991F9C01220F331F220F331F11
S1130DD0820F931FDA01A81BB90BCD0189878E8579
S1130DE0282F30E08A81882F90E0F901E81BF90B65
S1130DF0CF01298540E3420F2F813885820F931F4D
S1130E00DC014C938B859C859C01ADECBCEC0E9471
S1130E1025159695879596958795969587959C879C
S1130E208B878A818F5F8A839A818E85891708F0E0
S1130E30BBCF1B821C82C8C08C81882F90E02F817D
S1130E403885820F931FFC018081803311F081E08B
S1130E508B8361E08B81882309F060E08C81282FEB
S1130E6030E08E85482F50E08D85882F90E0DA01A0
S1130E70A81BB90BCD01029741E0281739070CF0E4
S1130E8040E0862F8423882351F08C81882F90E0C2
S1130E902F813885820F931F20E1FC0120838C81F0
S1130EA0282F30E08E85482F50E08D85882F90E0E4
S1130EB0BA01681B790BCB012817390764F58A85B9
S1130EC0682F70E08889282F30E08F85482F50E004
S1130ED08C81882F90E0840F951F4C81442F50E023
S1130EE0AF81B8854A0F5B1FFA01A081B4E1B29FBC
S1130EF0A001B39F500D1124B0E5B69F9001B79F98
S1130F00300D1124240F351F820F931F895F9C4FCE
S1130F10FC01A08356C08981882329F58A85682F1E
S1130F2070E08889282F30E08F85482F50E08C812D
S1130F30882F90E0840F951FA4E1A29FA001A39F96
S1130F40500D1124A0E5A69F9001A79F300D1124F8
S1130F50240F351F820F931F895F9C4F2EE2DC0103
S1130F602C9381E089838A85682F70E08889282FF3
S1130F7030E08F85882F90E0AC014F5F5F4F8C810C
S1130F80882F90E0840F951F4C81442F50E0AF814F
S1130F90B8854A0F5B1FFA01A081B4E1B29FA0019A
S1130FA0B39F500D1124B0E5B69F9001B79F300D4B
S1130FB01124240F351F820F931F895F9C4FFC015E
S1130FC0A0838C818F5F8C839C818E85981708F415
S1130FD033CF0FB6F8941EBF0FBE0DBF0000498972
S1130FE05A890FB6F8945EBF0FBE4DBF62960FB616
S1130FF0F894DEBF0FBECDBFDF91CF911F910F914B
S1131000EF9008950F93CF93DF93CDB7DEB7639737
S11310100FB6F894DEBF0FBECDBF8D874E875F87B6
S1131020688B798B2A8B0B8B8E859F85A889B989D0
S113103028EE33E040E050E0BC01CD010E940315EE
S1131040DC01CB019A8389838E859F85A889B98920
S113105028EE33E040E050E0BC01CD010E940315CE
S1131060DA01C9019C838B838B819C819C01A9E853
S1131070B8E80E94251596958795929582958F706C
S113108089279F7089279C838B838E859F85A88958
S1131090B98928EE33E040E050E0BC01CD010E9464
S11310A00315DA01C9019E838D834D815E819A0106
S11310B0A9E8B8E80E9425159C0136952795329534
S11310C022952F7023273F7023276CE3629FC00172
S11310D0639F900D11249A01281B390BC9019E832B
S11310E08D831F8258C049815A819A01ADECBCECB2
S11310F00E9425159695879596958795969587953B
S1131100880F991F9C01220F331F220F331F820F58
S1131110931FFA01E81BF90BCF018B878B85805D48
S11311208B8789819A819C01ADECBCEC0E942515CA
S11311309695879596958795969587959A838983AD
S11311408D85682F70E08B89282F30E08A89882F5D
S113115090E0AC01495F5F4F8F81882F90E0FA01E6
S1131160E81BF90BCF01E4E1E29FA001E39F500DDE
S11311701124E0E5E69F9001E79F300D1124240F30
S1131180351F820F931F895F9C4F2B85FC012083A1
S11311908F818F5F8F838F81833008F4A4CF18866B
S11311A058C04D815E819A01ADECBCEC0E942515BE
S11311B0969587959695879596958795880F991F07
S11311C09C01220F331F220F331F820F931F9A019A
S11311D0281B390BC9018C878C85805D8C878D8198
S11311E09E819C01ADECBCEC0E94251596958795DB
S11311F096958795969587959E838D838D85682F83
S113120070E08B89282F30E08A89882F90E0AC0128
S11312104D5F5F4F8885882F90E0FA01E81BF90B3A
S1131220CF01E4E1E29FA001E39F500D1124E0E52A
S1131230E69F9001E79F300D1124240F351F820F84
S1131240931F895F9C4F2C85FC01208388858F5FC9
S113125088878885823008F4A4CF198666C04B81BC
S11312605C819A01ADECBCEC0E942515969587959E
S11312709695879596958795880F991F9C01220FBF
S1131280331F220F331F820F931F9A01281B390B20
S1131290C9018A878A85805D8A8731E08A8580339F
S11312A009F030E021E08B819C810A9708F020E06E
S11312B0832F8223882311F080E18A878B819C818C
S11312C09C01ADECBCEC0E942515969587959695EE
S11312D08795969587959C838B838D85682F70E081
S11312E08B89282F30E08A89482F50E08985882F00
S11312F090E0FA01E81BF90BCF01E4E1E29FA001C1
S1131300E39F500D1124E0E5E69F9001E79F300D27
S11313101124240F351F820F931F895F9C4F2A8548
S1131320FC01208389858F5F89878985823008F451
S113133096CF000063960FB6F894DEBF0FBECDBF04
S1131340DF91CF910F910895CF93DF9300D000D018
S1131350CDB7DEB71A82198256C01C821B8249C0DF
S113136089819A8144E1489F9001499F300D11245D
S11313708B819C81820F931F895F9C4F20E1FC012C
S1131380208389819A8144E1489F9001499F300DCF
S113139011248B819C81820F931F895A9C4F20E1D9
S11313A0FC01208389819A8144E1489F9001499FEF
S11313B0300D11248B819C81820F931F89559C4F82
S11313C020E1FC01208389819A8144E1489F9001B6
S11313D0499F300D11248B819C81820F931F89506A
S11313E09C4F20E1FC0120838B819C8101969C838E
S11313F08B838B819C8144970CF4B2CF89819A8131
S113140001969A83898389819A8104970CF4A5CFE4
S113141000000F900F900F900F90DF91CF910895DF
S1131420CF93DF93CDB7DEB784E58093070383E5DD
S11314308093080386E58093090383E58093110371
S113144080E58093120384E48093130383E4809300
S11314501B038FE480931C038FE480931D038CE4AF
S113146080931E0381E48093250383E48093260301
S113147084E58093270382E480932F0382E480939E
S1131480300383E5809339038FE480933A0383E444
S113149080933B038CE480934D0386E580934E0355
S11314A083E580934F0386E580930F038BE4809359
S11314B018038DE48093190388E480931A0383E46A
S11314C08093230383E480932C038DE2809337037A
S11314D085E28093400386E58093540384E58093FA
S11314E0570380E58093580383E58093590381E390
S11314F080935A0382E38093610381E480936B03B6
S113150080E580936C0383E580936D0381E380938E
S11315106E0382E38093750384E580937F0380E503
S11315208093800383E58093810385E48093820321
S113153082E48093930380E58093940386E480930C
S1131540950382E580939B0385E280935F0385E2A4
S11315508093730385E28093870385E28093660317
S113156085E280937A0382E48093990382E48093F2
S11315709F0384E58093A70383E48093A80382E414
S11315808093BB0385E48093BC0383E58093BD0310
S113159080E58093CF0382E58093D00385E4809334
S11315A0D1038CE48093E3038EE48093E40383E526
S11315B08093AC0380E58093AD0385E48093AE0310
S11315C084E48093AF038BE48093B4038DE480932D
S11315D0B50388E48093B6038FE48093E90384E43D
S11315E08093EA038FE48093EB038BE48093F0030E
S11315F08DE48093F1038AE38093C0038AE38093AC
S1131600C3038AE38093D4038AE38093D70300005F
S1131610DF91CF910895CF93DF9300D01F92CDB780
S1131620DEB78B8319821A8222C08B81882F90E0C7
S11316302A81222F30E002C0959587952A95E2F7FA
S1131640817099272A81222F30E047E050E0BA01C7
S1131650621B730B9B0102C0880F991F2A95E2F746
S1131660982F8981892B89838A818F5F8A838A81D4
S11316708830D8F289810F900F900F90DF91CF912D
S11316800895CF93DF93CDB7DEB782E290E022E2F4
S113169030E0F90120812F70FC01208384E390E085
S11316A024E330E0F90120812B7FFC01208300003A
S11316B0DF91CF910895CF93DF93CDB7DEB788E262
S11316C090E0FC01108284E390E024E330E0F9012F
S11316D020812C7FFC0120830000DF91CF910895AD
S11316E0CF93DF93CDB7DEB729970FB6F894DEBF5B
S11316F00FBECDBF9D838C837F836E8359874887BC
S1131700C0DF2C813D818E819F81A901481B590B2B
S1131710CA0196958795969587959A838983288596
S113172039858E819F81281B390B89819A81820F8B
S1131730931F29813A81B9010E94DC14CB018B8368
S11317408B8118161CF48B810DD002C080E00AD066
S1131750000029960FB6F894DEBF0FBECDBFDF910F
S1131760CF910895CF93DF931F92CDB7DEB78983CE
S113177082E290E022E230E0F9012081622F2981A7
S1131780422F50E02FEF30E002C0220F331F4A9562
S1131790E2F72095309522953295307F3227207FCD
S11317A03227262BFC01208384E390E024E330E0FD
S11317B0F9012081622F2981422F50E020E830E096
S11317C002C0359527954A95E2F72470262BFC0133
S11317D0208300000F90DF91CF910895CF93DF9382
S11317E01F92CDB7DEB7898388E290E028E230E02B
S11317F0F9012081622F2981422F50E02FEF30E040
S113180002C0359527954A95E2F72095262BFC01D1
S1131810208384E390E024E330E0F9012081622F07
S1131820398129E3329F212D11242695422F50E03E
S11318302FEF30E002C0220F331F4A95E2F72095C4
S11318403095598149E3549F412D11244695442FE5
S113185050E002C0220F331F4A95E2F7422F39812C
S11318602DEC329F212D1124269526952695240FA3
S1131870262BFC01208300000F90DF91CF91089567
S11318800F931F93CF93DF9300D000D0CDB7DEB773
S11318908B836C830EE210E08B81BDDEF8018083C4
S11318A08C81813051F485E290E025E230E0F90149
S11318B020812064FC01208309C085E290E025E2B8
S11318C030E0F90120812F7BFC01208385E290E048
S11318D025E230E0F90120812061FC0120831A8295
S11318E0198205C089819A8101969A8389838981A5
S11318F09A8184369105B4F385E290E025E230E0E4
S1131900F90120812F7EFC01208300000F900F90AD
S11319100F900F90DF91CF911F910F9108958F92A7
S1131920AF92CF92EF920F93CF93DF93CDB7DEB701
S113193029970FB6F894DEBF0FBECDBF89836A83A3
S11319404B832C830D83EE82CF82A886898689817E
S1131950882F90E00896880F880F880F60E090DF4A
S113196061E08A818DDF61E08B818ADF61E08C81B7
S113197087DF61E08D8184DF61E08E8181DF61E05A
S11319808F817EDF61E088857BDF61E0898578DF98
S113199060E082E075DF000029960FB6F894DEBFA0
S11319A00FBECDBFDF91CF910F91EF90CF90AF904D
S11319B08F900895CF93DF931F92CDB7DEB78983BD
S11319C080912602843128F58981682F70E0809106
S11319D02702282F30E08091260291E0980F9093FF
S11319E02602882F90E0E4E1E29FA001E39F500DDE
S11319F01124E0E5E69F9001E79F300D1124240FA8
S1131A00351F820F931F895F9C4FFC01808161E029
S1131A1037DF80912602843189F480912702882F50
S1131A2090E0895F9E4FFC01808160E029DF109285
S1131A302602809127028F5F8093270280912702DC
S1131A40843011F41092270200000F90DF91CF919F
S1131A5008958F92AF92CF92EF920F93CF93DF932B
S1131A60CDB7DEB70F2EFFE18F2EF02D0F2EFFE145
S1131A70AF2EF02D0F2EFFE1CF2EF02DE12C00E044
S1131A8020E040E060E080E04ADF812CA12CC12C02
S1131A90E12C00E020E04FE16FE181E040DF0F2E18
S1131AA0FFEE8F2EF02D0F2EFFEEAF2EF02D0F2E0A
S1131AB0FFEECF2EF02D0F2EFFEEEF2EF02D0FEEBA
S1131AC02FEE4FEE6FEE82E02ADF0F2EFEE18F2E17
S1131AD0F02D0F2EFEE1AF2EF02D0F2EFEE1CF2EB6
S1131AE0F02D0F2EFEE1EF2EF02D0EE12EE14EE152
S1131AF06EE183E014DF812CA12CC12CE12C0FEFCB
S1131B002FEF4FEF6FEF84E00ADF0F2EFFEE8F2EE3
S1131B10F02D0F2EFFEEAF2EF02D0F2EFFEECF2E59
S1131B20F02D0F2EFFEEEF2EF02D0FEF2FEF4FEFD6
S1131B306FEF85E0F4DE812C6894AA24A1F80F2EBF
S1131B40F5E1CF2EF02D0F2EFAE0EF2EF02D04E06C
S1131B502AE045E168E086E0E2DE0000DF91CF9113
S1131B600F91EF90CF90AF908F900895CF93DF9324
S1131B7000D0CDB7DEB71A8219820DC089819A814F
S1131B8080509F4FFC01808160E07ADE89819A81D8
S1131B9001969A83898389819A8107977CF300004F
S1131BA00F900F90DF91CF910895CF93DF93CDB72E
S1131BB0DEB78091210290912202A0912302B0917C
S1131BC0240284529A4FAF4FBF4F9C01AD018091C4
S1131BD0340290913502A0913602B0913702281751
S1131BE039074A075B07D8F020E040E06CE071E079
S1131BF080E051D821E040E061E271E080E04BD820
S1131C0022E040E066E371E080E045D823E040E074
S1131C106BE471E080E03FD880E0CCDE35C0809199
S1131C20210290912202A0912302B09124028C56A9
S1131C309E4EAF4FBF4F9C01AD01809134029091F5
S1131C403502A0913602B0913702281739074A07A6
S1131C505B07D0F020E040E060E671E080E01BD854
S1131C6021E040E065E771E080E015D822E040E043
S1131C706AE871E080E00FD823E040E06FE971E0AA
S1131C8080E009D880E096DE80912502482F50E05C
S1131C9024E931E0429FC001439F900D529F900D73
S1131CA011249C01990F440B550B809121029091B2
S1131CB02202A0912302B0912402820F931FA41F39
S1131CC0B51F9C01AD018091340290913502A09121
S1131CD03602B0913702281739074A075B0798F490
S1131CE080912502863020F4809125023BDD06C0D8
S1131CF085E038DD80912502855070DD80912502D4
S1131D008F5F809325020000DF91CF910895CF93D8
S1131D10DF931F92CDB7DEB7198223E030E040E0B5
S1131D2050E064EB71E080E090E00E944B0680910B
S1131D30DC019091DD018337910578F08981882F4A
S1131D4090E023E030E0AC016FEB71E080E090E0E4
S1131D500E944B0689818C5F89838091DC0190917C
S1131D60DD0131E0CC9708F430E08981882F90E0E0
S1131D70049621E00B9708F020E0832F8223882328
S1131D8079F08981882F90E023E030E0AC016FEB9B
S1131D9071E080E090E00E944B0689818C5F89832A
S1131DA08981882351F423E030E040E050E064EC82
S1131DB071E080E090E00E944B0600000F90DF91FC
S1131DC0CF910895EF92FF920F931F93CF93DF93D8
S1131DD0CDB7DEB791D306D40E946002C7DE39DEE8
S1131DE00E94A700B1DA7894809134029091350270
S1131DF0A0913602B091370290932202809321027F
S1131E0001C0D3DE80912102909122028059984E24
S1131E109C01990F440B550B80913402909135022B
S1131E20A0913602B0913702281739074A075B0799
S1131E3040F768EB7BE08AE01AD286DAF1DA44E014
S1131E4050E060E070E085E090E04ADC80914F0271
S1131E50813208F4D8C110924F0280913202882353
S1131E6009F03FC18091D4019091D501E12C05E0A6
S1131E7023E040E0BC0180E00E949F0680911B02A9
S1131E8090911C02E12C0EE023E040E0BC0180E0D4
S1131E900E949F068091DC019091DD01EE24E39481
S1131EA006E022E040E0BC0180E00E949F068091B1
S1131EB0D6019091D701EE24E3940FE022E040E0B4
S1131EC0BC0180E00E949F068091D8019091D901C5
S1131ED06894EE24E1F80EE023E040E0BC0180E0E9
S1131EE00E949F068091DA019091DB010F2EF3E0AE
S1131EF0EF2EF02D0FE022E040E0BC0180E00E94D4
S1131F009F068091D301882371F422E040E067ECBE
S1131F1071E080E00E944B0681E080930B0181E038
S1131F2080933C022BC010923C0280910B018823C9
S1131F3091F080E18093310380E18093320380E16A
S1131F408093330380E18093340380910B018150AB
S1131F5080930B0165DA9091E2018091E101692F90
S1131F600E94CC05882F90E06894EE24E1F806E006
S1131F7022E040E0BC0180E00E949F062091EC0139
S1131F803091ED014091EE015091EF018091FB0100
S1131F909091FC01A091FD01B091FE0179018A01AB
S1131FA0E81AF90A0A0B1B0BD801C70180933D02FA
S1131FB090933E02A0933F02B093400220914102CD
S1131FC030914202409143025091440280913D027B
S1131FD090913E02A0913F02B09140022817390728
S1131FE04A075B07A1F18091340290913502A091D8
S1131FF03602B09137028093380290933902A0934D
S11320003A02B0933B028091380290913902A09138
S11320103A02B0913B0288579C4EAF4FBF4F80931A
S1132020380290933902A0933A02B0933B02809114
S11320303D0290913E02A0913F02B09140028093F4
S1132040410290934202A0934302B0934402209130
S113205038023091390240913A0250913B0280910A
S1132060340290913502A0913602B0913702821762
S11320709307A407B50768F580913D0290913E024D
S1132080A0913F02B091400299231CF4919581954F
S11320909109092E000CAA0BBB0B03E021E0AC0153
S11320A0BD0180E00E9402088AE380934803809186
S11320B03D0290913E02A0913F02B0914002BB23A9
S11320C024F08BE2809343030CC08DE2809343039E
S11320D008C01DDE23E040E068E272E080E00E9478
S11320E04B06809132028130C1F58091DF01882F47
S11320F090E0EE24E39405E023E040E0BC0181E0BD
S11321000E949F068091E001882F90E0EE24E394E2
S11321100CE023E040E0BC0181E00E949F06809136
S1132120E101882F90E00F2EF3E0EF2EF02D04E074
S113213022E040E0BC0181E00E949F068091E20120
S1132140882F90E00F2EF3E0EF2EF02D0AE022E02E
S113215040E0BC0181E00E949F06809132028230FF
S113216009F051C08091FB019091FC01A091FD0107
S1132170B091FE0101E024E0AC01BD0182E00E94C7
S1132180020880910A0290910B02A0910C02B09176
S11321900D0202E024E0AC01BD0182E00E940208CD
S11321A08091190290911A020F2EF3E0EF2EF02D78
S11321B00AE023E040E0BC0182E00E949F06E12C9B
S11321C003E021E040E069E070E082E00E949F06C5
S11321D08091EB01882F90E00F2EF3E0EF2EF02D8D
S11321E003E022E040E0BC0182E00E949F0680916F
S11321F01B0290911C02E12C0AE023E040E0BC01A8
S113220082E00E949F0680915002882331F08091E1
S11322103202D0DB1092500257D020913402309118
S11322203502409136025091370280913302882F53
S113223090E0A0E0B0E079018A01E81AF90A0A0BFB
S11322401B0BD801C7010A97A105B10508F4FECDFF
S11322500E9439030E9487038091340290913502D1
S1132260A0913602B091370280933302EFCDCF9321
S1132270DF9300D01F92CDB7DEB789837B836A8357
S11322808981809347028A819B819093490280933C
S113229048028091340290913502A0913602B091A7
S11322A0370280934A0290934B02A0934C02B0935E
S11322B04D02109245021092460200000F900F90BA
S11322C00F90DF91CF9108950F931F93CF93DF93D6
S11322D0CDB7DEB79091450280914702981708F078
S11322E0A2C0209148023091490280914702882F70
S11322F090E0880F991FAC01C901BA015DD3CB01ED
S1132300969587959C0140E050E080914A02909117
S11323104B02A0914C02B0914D0289019A01080F21
S1132320191F2A1F3B1F80914502E82FF0E04091BE
S113233048025091490280914702882F90E0880F0B
S1132340991FBC01CA0138D3CB01AC01E49FC00181
S1132350E59F900DF49F900D1124CC01A0E0B0E016
S1132360A9019801280F391F4A1F5B1F809134026D
S113237090913502A0913602B091370282179307EB
S1132380A407B50788F080914602882369F481E0A8
S11323908093460285E0E6D98AE020DA80914502FE
S11323A08F5F8093450247C080914502282F30E01B
S11323B0409148025091490280914702882F90E051
S11323C0880F991FBC01CA01F7D2CB01AC01249F2D
S11323D0C001259F900D349F900D11249C0140E075
S11323E050E080914A0290914B02A0914C02B0912E
S11323F04D02280F391F4A1F5B1F809134029091B0
S11324003502A0913602B091370282179307A407D0
S1132410B50788F080914602813069F41092460233
S113242030D949D908C0109245021092470210923F
S1132430460227D940D90000DF91CF911F910F9117
S113244008951F920F9200905F000F921124009044
S11324505B000F922F933F938F939F93EF93FF9380
S1132460CF93DF93CDB7DEB780914E02882F90E0F3
S11324708230910581F083309105B9F0019709F01C
S113248029C08EE490E020914904FC01208382E07D
S113249080934E021FC08EE490E020914A04FC0118
S11324A0208383E080934E0215C085E290E025E20C
S11324B030E0F90120812068FC01208382E290E071
S11324C022E230E0F90120812860FC01208310928F
S11324D04E0200000000DF91CF91FF91EF919F9198
S11324E08F913F912F910F9000925B000F9000927B
S11324F05F000F901F901895CF93DF93CDB7DEB791
S113250081E290E021E230E0F90120812C6FFC01AE
S1132510208381E290E021E230E0F90120812C7FE8
S1132520FC01208384E290E024E230E0F901208180
S1132530266FFC01208384E290E024E230E0F9017C
S11325402081277FFC01208387E290E02FEFFC01AC
S113255020838AE290E02AE230E0F90120812F69A9
S1132560FC0120838DE290E02FEFFC01208380E3C7
S113257090E020E330E0F9012081217FFC012083F9
S113258083E390E023E330E0F90120812F61FC0133
S1132590208382E290E0FC01108285E290E0FC015D
S11325A0108288E290E0FC0110828BE290E0FC0152
S11325B010828EE290E0FC01108281E390E0FC0145
S11325C0108284E390E0FC01108282E290E022E237
S11325D030E0F90120812360FC0120830000DF91B9
S11325E0CF910895CF93DF93CDB7DEB784E490E025
S11325F02BE0FC0120838EE690E022E0FC012083A6
S113260087E490E029EFFC0120830000DF91CF9163
S113261008951F920F9200905F000F921124009072
S11326205B000F922F933F938F939F93AF93BF932E
S1132630EF93FF93CF93DF93CDB7DEB781E0809321
S1132640500280914F028F5F80934F028091340239
S113265090913502A0913602B09137020196A11DE6
S1132660B11D8093340290933502A0933602B09347
S1132670370284E390E024E330E0F901308128E07C
S11326802327FC0120830000DF91CF91FF91EF917C
S1132690BF91AF919F918F913F912F910F90009295
S11326A05B000F9000925F000F901F9018950CD064
S11326B0E6C0DED040F0D5D030F021F45F3F19F011
S11326C0C7C0511110C1CAC0EBD098F39923C9F304
S11326D05523B1F3951B550BBB27AA276217730724
S11326E0840738F09F5F5F4F220F331F441FAA1FD8
S11326F0A9F333D00E2E3AF0E0E830D09150504098
S1132700E695001CCAF729D0FE2F27D0660F771F45
S1132710881FBB1F261737074807AB07B0E809F027
S1132720BB0B802DBF01FF2793585F4F2AF09E3FBC
S1132730510568F08DC0D7C05F3FECF3983EDCF3E1
S1132740869577956795B795F7959F5FC9F7880F35
S1132750911D9695879597F90895E1E0660F771F87
S1132760881FBB1F621773078407BA0720F0621B18
S1132770730B840BBA0BEE1F88F7E095089598D07D
S113278088F09F5790F0B92F9927B751A0F0D1F056
S1132790660F771F881F991F1AF0BA95C9F712C0E0
S11327A0B13081F09FD0B1E008959CC0672F782F9D
S11327B08827B85F39F0B93FCCF38695779567954C
S11327C0B395D9F73EF490958095709561957F4FB8
S11327D08F4F9F4F0895E89409C097FB3EF490955E
S11327E08095709561957F4F8F4F9F4F9923A9F0E6
S11327F0F92F96E9BB279395F69587957795679575
S1132800B795F111F8CFFAF4BB0F11F460FF1BC0B8
S11328106F5F7F4F8F4F9F4F16C0882311F096E94B
S113282011C0772321F09EE8872F762F05C06623F9
S113283071F096E8862F70E060E02AF09A95660FB2
S1132840771F881FDAF7880F9695879597F908956B
S113285097F99F6780E870E060E008959FEF80EC4F
S1132860089500240A9416161706180609060895F2
S113287000240A9412161306140605060895092E58
S11328800394000C11F4882352F0BB0F40F4BF2BC7
S113289011F460FF04C06F5F7F4F8F4F9F4F089507
S11328A057FD9058440F551F59F05F3F71F04795FD
S11328B0880F97FB991F61F09F3F79F087950895E2
S11328C0121613061406551FF2CF4695F1DF08C001
S11328D0161617061806991FF1CF8695710561051E
S11328E008940895E894BB2766277727CB0197F9C6
S11328F008950BD0C4CFB5DF28F0BADF18F09523C4
S113290009F0A6CFABCF1124EECFCADFA0F3959F79
S1132910D1F3950F50E0551F629FF001729FBB27C2
S1132920F00DB11D639FAA27F00DB11DAA1F649F6E
S11329306627B00DA11D661F829F2227B00DA11D21
S1132940621F739FB00DA11D621F839FA00D611DA7
S1132950221F749F3327A00D611D231F849F600DC8
S1132960211D822F762F6A2F11249F5750408AF001
S1132970E1F088234AF0EE0FFF1FBB1F661F771F8D
S1132980881F91505040A9F79E3F510570F060CFC9
S1132990AACF5F3FECF3983EDCF386957795679575
S11329A0B795F795E7959F5FC1F7FE2B880F911DAB
S11329B09695879597F90895AA1BBB1B51E107C00B
S11329C0AA1FBB1FA617B70710F0A61BB70B881FBB
S11329D0991F5A95A9F780959095BC01CD0108954A
S11329E097FB072E16F4009406D077FD08D0E4DF99
S11329F007FC05D03EF4909581959F4F08957095FE
S1132A0061957F4F0895A1E21A2EAA1BBB1BFD01FD
S1132A100DC0AA1FBB1FEE1FFF1FA217B307E407B9
S1132A20F50720F0A21BB30BE40BF50B661F771F11
S1132A30881F991F1A9469F76095709580959095F1
S1132A409B01AC01BD01CF010895A29FB001B39FCA
S1132A50C001A39F700D811D1124911DB29F700DA3
S1132A60811D1124911D0895FC0101900020E9F7B6
S1112A70809590958E0F9F1F0895F894FFCFC8
S1132A7E3908061700020CC094D4800120202020AF
S1132A8E20204449432056302E312020202020205F
S1132A9E002020536F6674776172652077726974B3
S1132AAE74656E202000202020202020202020620B
S1132ABE792020202020202020200042616C74697F
S1132ACE6320526163696E6720416C756D6E690097
S1132ADE496E697469616C697A696E6720566F6FA5
S1132AEE646F6F2E00204368617267696E672055AC
S1132AFE70204D616769632E2000202046696C6C3E
S1132B0E696E6720557020536D6F6B652020002011
S1132B1E204D616B652027656D205749434B454415
S1132B2E21202000202020202020202020200043AF
S1132B3E4C5421004F4B004C4320414354495645BD
S1052B4E000081
S9030000FC
