S00B00006469632E73726563E9
S113000049C0000066C0000064C0000062C0000077
S113001060C000005EC000005CC000005AC0000068
S113002058C0000056C0000054C0000052C0000078
S113003050C000004EC000004CC000004AC0000088
S11300400C94071346C0000044C0000042C00000E6
S11300500C941F123EC000003CC000003AC00000D7
S113006038C0000036C0000034C0000032C00000B8
S113007030C000002EC000002CC000002AC00000C8
S113008028C0000026C0000024C0000022C00000D8
S113009020C0000011241FBECFEFD0E1DEBFCDBFD2
S11300A011E0A0E0B1E0EAE4FAE200E00BBF02C034
S11300B007900D92A23DB107D9F724E0A2EDB1E07B
S11300C001C01D92AA35B207E1F70E94730E0C9489
S11300D0231596CFCF93DF9300D0CDB7DEB78A83B5
S11300E019828A818830C0F08DED90E0FC01808116
S11300F0882F90E02A81222F30E02850310902C055
S1130100959587952A95E2F78170992721E0892BA7
S113011009F020E0298315C08CED90E0FC0180817A
S1130120882F90E02A81222F30E002C09595879590
S11301302A95E2F78170992721E0892B09F020E0C4
S1130140298389810F900F90DF91CF910895CF93E8
S1130150DF9300D0CDB7DEB788ED90E0FC011082CC
S1130160198256C08DEE90E02981222F30E022952D
S11301703295307F3227207F32272860FC0120838C
S11301808EEE90E0FC0110828FEE90E0FC01108274
S113019080EF90E0FC01108281EF90E0FC0110827E
S11301A082EF90E0FC01108283EF90E0FC0110826A
S11301B084EF90E0FC01108285EF90E0FC01108256
S11301C086EF90E0FC01108287EF90E0FC01108242
S11301D01A8218C08DEE90E02981222F30E02295FA
S11301E03295307F3227207F3227322F2A81232BEA
S11301F02860FC0120838AEF90E0FC0110828A8150
S11302008F5F8A838A81883028F389818F5F89830D
S113021089818F3008F4A6CF82EE90E0FC01108231
S113022083EE90E02CE0FC01208384EE90E026E352
S1130230FC0120838BED90E0FC01108288ED90E0BE
S113024028ED30E0F90120812260FC0120830000C8
S11302500F900F90DF91CF910895CF93DF9300D04B
S113026000D01F92CDB7DEB79B838A837D836C83D6
S11302708DEE90E02A813B81F90124812295207F33
S1130280FC0120838A819B81FC01848123DF8823F4
S113029009F450C083EF90E02A813B81F901208169
S11302A03181369527953695279536952795FC0106
S11302B0208382EF90E02A813B81F9012081318102
S11302C02295220F207EFC01208381EF90E0FC0127
S11302D0108280EF90E024E0FC01208387EF90E01F
S11302E02A813B81F9012281338136952795369500
S11302F0279536952795FC01208386EF90E02A8187
S11303003B81F901228133812295220F207EFC0159
S1130310208385EF90E0FC01108284EF90E0FC01E3
S113032010828FEE90E028ECFC0120838EEE90E0AA
S1130330FC011082198224C08DEE90E02A813B8159
S1130340F9012481222F30E022953295307F322723
S1130350207F3227322F2981232B2860FC01208320
S11303608981882F90E02C813D81820F931F2AEF91
S113037030E0F9012081FC01208389818F5F89832A
S113038089818830C8F200000F900F900F900F9071
S11303900F90DF91CF910895CF93DF93CDB7DEB760
S11303A080E597E09093F6028093F5028FEF9FEF3C
S11303B09093F8028093F7021092F90280E096E09D
S11303C090938602809385028FEF9FEF909388022B
S11303D08093870281E08093890281E096E0909384
S11303E0BF028093BE028FEF9FEF9093C102809370
S11303F0C00282E08093C20280E094E09093930272
S1130400809392028FEF9FEF9093950280939402D2
S113041083E08093960280E194E09093A502809318
S1130420A4028FEF9FEF9093A7028093A60284E02B
S11304308093A80280E294E09093FB028093FA02F6
S11304408FEF9FEF9093FD028093FC0285E08093F1
S1130450FE0289E997E09093CC028093CB028FEF60
S11304609FEF9093CE028093CD0286E08093CF02DB
S113047088E997E09093B2028093B1028FEF9FEFE7
S11304809093B4028093B30287E08093B50287E926
S113049097E090936902809368028FEF9FEF9093A7
S11304A06B0280936A028AE080936C0280E095E09C
S11304B090930D0380930C038FEF9FEF90930F03A2
S11304C080930E038BE08093100380E092E090937E
S11304D01203809311038FEF9FEF90931403809383
S11304E013038CE08093150381E092E09093D10292
S11304F08093D0028FEF9FEF9093D3028093D20228
S11305008DE08093D40282E092E09093080380937C
S113051007038FEF9FEF90930A03809309038EE004
S113052080930B0383E092E0909398028093970268
S11305308FEF9FEF90939A02809399028FE08093BC
S11305409B020000DF91CF910895CF93DF93CDB745
S1130550DEB76FEF72E085EF92E07FDE65EE72E06A
S113056085E892E07ADE6DED72E08EEB92E075DE66
S113057069EA72E082E992E070DE66EB72E084EA96
S113058092E06BDE63EC72E08AEF92E066DE6DEE81
S113059072E08BEC92E061DE60E672E081EB92E067
S11305A05CDE6DE672E088E692E057DE6CE972E0AC
S11305B081E193E052DE6DE772E080ED92E04DDE82
S11305C06AE872E087E093E048DE65ED72E087E96F
S11305D092E043DE0000DF91CF910895CF93DF9343
S11305E0CDB7DEB78091FF028093D20180910003E2
S11305F08093D3018091D201837080933A02109248
S1130600DE018091AA02882F90E0382F2227809162
S1130610A902882F90E0822B932B2AE030E0B901C5
S11306200E94D614CB018093DF018091AC02882F05
S113063090E0382F22278091AB02882F90E0822B04
S1130640932B2AE030E0B9010E94D614CB018093A9
S1130650E0018091B702882F90E0382F2227809103
S1130660B602882F90E0822B932B2AE030E0B90168
S11306700E94D614CB018093E1018091B902882FA6
S113068090E0382F22278091B802882F90E0822BA7
S1130690932B2AE030E0B9010E94D614CB01809359
S11306A0E2018091C402882F90E0382F22278091A4
S11306B0C302882F90E0822B932B2AE030E0B9010B
S11306C00E94D614CB019093DD018093DC018091CC
S11306D0E602882F90E0382F22278091E502882FA8
S11306E090E0822B932B28E230E0B9010E94D614CB
S11306F0CB019093DB018093DA018091DE02882F95
S113070090E0982F8827982F8091DD02892B809381
S1130710E3018091E002882F90E0382F2227809116
S1130720DF02882F90E0822B932B9093E501809336
S1130730E40180919C028093E60180919E02882FBF
S113074090E0382F222780919D02882F90E0822B01
S1130750932B9093E8018093E7018091A00280930A
S1130760E90180917E02882F90E0382F2227809122
S11307707D02882F90E0822B932B26E030E0B90194
S11307800E94D614CB019093D5018093D40180911B
S11307908202882F90E0382F222780918102882FAF
S11307A090E0822B932B9093D9018093D801809170
S11307B08B02882F90E0382F222780918A02882F7D
S11307C090E0822B932B9093EC018093EB0180912A
S11307D08D02882F90E0382F222780918C02882F59
S11307E090E0822B932B9093EE018093ED01809106
S11307F08F02882F90E0382F222780918E02882F35
S113080090E0822B932B9093F0018093EF018091E1
S11308109102882F90E0382F222780919002882F10
S113082090E0822B932B9093F2018093F1018091BD
S11308309102882F90E0382F222780919002882FF0
S113084090E0822B932B9093D7018093D6018091D3
S1130850D5028093EA018091EE028093F8018091A1
S1130860EF02882F90E09093FA018093F901809130
S1130870F002882F90E0A0E0B0E08093FB01909319
S1130880FC01A093FD01B093FE018091F102882F39
S113089090E0A0E0B0E08093FF0190930002A09369
S11308A00102B09302028091F801282F30E0809178
S11308B0F9019091FA01982F8827822B932B9C01A0
S11308C040E050E08091FB019091FC01A091FD017A
S11308D0B091FE01DC0199278827282B392B4A2B5C
S11308E05B2B8091FF0190910002A0910102B091D5
S11308F00202B82FAA2799278827822B932BA42B8F
S1130900B52B8093F4019093F501A093F601B09375
S1130910F701809160028093070280916102882F21
S113092090E0909309028093080280916202882FDC
S113093090E0A0E0B0E080930A0290930B02A093B1
S11309400C02B0930D0280916302882F90E0A0E026
S1130950B0E080930E0290930F02A0931002B09324
S1130960110280910702282F30E0809108029091B3
S11309700902982F8827822B932B9C0140E050E09A
S113098080910A0290910B02A0910C02B0910D0289
S1130990DC0199278827282B392B4A2B5B2B809144
S11309A00E0290910F02A0911002B0911102B82F83
S11309B0AA2799278827822B932BA42BB52B8093C6
S11309C0030290930402A0930502B093060280915F
S11309D064028093160280916502882F90E09093C0
S11309E018028093170280916602882F90E0A0E09D
S11309F0B0E08093190290931A02A0931B02B09363
S1130A001C0280916702882F90E0A0E0B0E0809300
S1130A101D0290931E02A0931F02B09320028091A6
S1130A201602282F30E08091170290911802982F17
S1130A308827822B932B9C0140E050E0809119027F
S1130A4090911A02A0911B02B0911C02DC0199271B
S1130A508827282B392B4A2B5B2B80911D029091E0
S1130A601E02A0911F02B0912002B82FAA27992735
S1130A708827822B932BA42BB52B8093120290935F
S1130A801302A0931402B09315028091F302882FED
S1130A9090E0382F22278091F202882F90E0822B59
S1130AA0932B909322028093210280917402882FC9
S1130AB090E0382F222780917302882F90E0822BB8
S1130AC0932B90932402809323028091ED028093D0
S1130AD0F30180E290E0FC018081882F90E0817036
S1130AE0992721E0892B09F020E0822F8093750259
S1130AF080E290E0FC018081809582708093760290
S1130B000000DF91CF910895EF92FF920F931F930E
S1130B10CF93DF9300D0CDB7DEB789836A83898111
S1130B208A3008F459C08981282F30E08A81882FBF
S1130B3090E0820F931F092E000CAA0BBB0BBC0183
S1130B40CD010E94D313DC01CB0180932502909345
S1130B502602A0932702B09328028981882F90E06F
S1130B60092E000CAA0BBB0BBC01CD010E94D313B0
S1130B707B018C018091250290912602A09127028D
S1130B80B09128029C01AD01C801B7010E943D1338
S1130B90DC01CB018093250290932602A0932702C7
S1130BA0B09328028091250290912602A0912702F9
S1130BB0B091280220E030E048EC52E4BC01CD01C1
S1130BC00E945F14DC01CB018093250290932602DE
S1130BD0A0932702B09328028091250290912602C7
S1130BE0A0912702B0912802BC01CD010E94A51357
S1130BF0DC01CB010F900F90DF91CF911F910F91EA
S1130C00FF90EF900895CF93DF93CDB7DEB727978A
S1130C100FB6F894DEBF0FBECDBF8B837D836C838C
S1130C204E832F831A8219822EC08B81682F70E025
S1130C308F81282F30E08E81482F50E089819A815E
S1130C40840F951FEC81FD8149815A814E0F5F1FEE
S1130C50DA01EC91F4E1F29FA001F39F500D11240D
S1130C60F0E5F69F9001F79F300D1124240F351FF6
S1130C70820F931F8A5E9C4FDC01EC9389819A81D9
S1130C8001969A8389838C819D810E941A159C0107
S1130C9089819A818217930740F2000027960FB644
S1130CA0F894DEBF0FBECDBFDF91CF910895EF92D0
S1130CB00F931F93CF93DF93CDB7DEB762970FB631
S1130CC0F894DEBF0FBECDBF8A877C876B874D87C4
S1130CD02E870F87E88A4DB75EB75A8B498B8DB73D
S1130CE09EB78C012E85822F90E001979E838D8381
S1130CF0822F90E06DB77EB7681B790B0FB6F8941E
S1130D007EBF0FBE6DBF8DB79EB7019698878F8348
S1130D10198281E08A8340C04B855C859A01ADECE1
S1130D20BCEC0E940B15969587959695879596959C
S1130D308795880F991F9C01220F331F220F331FA1
S1130D40820F931FDA01A81BB90BCD0189878E8509
S1130D50282F30E08A81882F90E0F901E81BF90BF5
S1130D60CF01298540E3420F2F813885820F931FDD
S1130D70DC014C938B859C859C01ADECBCEC0E9402
S1130D800B159695879596958795969587959C8747
S1130D908B878A818F5F8A839A818E85891708F071
S1130DA0BBCF1B821C82C8C08C81882F90E02F810E
S1130DB03885820F931FFC018081803311F081E01C
S1130DC08B8361E08B81882309F060E08C81282F7C
S1130DD030E08E85482F50E08D85882F90E0DA0131
S1130DE0A81BB90BCD01029741E0281739070CF075
S1130DF040E0862F8423882351F08C81882F90E053
S1130E002F813885820F931F20E1FC0120838C8180
S1130E10282F30E08E85482F50E08D85882F90E074
S1130E20BA01681B790BCB012817390764F58A8549
S1130E30682F70E08889282F30E08F85482F50E094
S1130E408C81882F90E0840F951F4C81442F50E0B3
S1130E50AF81B8854A0F5B1FFA01A081B4E1B29F4C
S1130E60A001B39F500D1124B0E5B69F9001B79F28
S1130E70300D1124240F351F820F931F8A5E9C4F5F
S1130E80FC01A08356C08981882329F58A85682FAF
S1130E9070E08889282F30E08F85482F50E08C81BE
S1130EA0882F90E0840F951FA4E1A29FA001A39F27
S1130EB0500D1124A0E5A69F9001A79F300D112489
S1130EC0240F351F820F931F8A5E9C4F2EE2DC0194
S1130ED02C9381E089838A85682F70E08889282F84
S1130EE030E08F85882F90E0AC014F5F5F4F8C819D
S1130EF0882F90E0840F951F4C81442F50E0AF81E0
S1130F00B8854A0F5B1FFA01A081B4E1B29FA0012A
S1130F10B39F500D1124B0E5B69F9001B79F300DDB
S1130F201124240F351F820F931F8A5E9C4FFC01EE
S1130F30A0838C818F5F8C839C818E85981708F4A5
S1130F4033CF0FB6F8941EBF0FBE0DBF0000498902
S1130F505A890FB6F8945EBF0FBE4DBF62960FB6A6
S1130F60F894DEBF0FBECDBFDF91CF911F910F91DB
S1130F70EF9008950F93CF93DF93CDB7DEB76397C8
S1130F800FB6F894DEBF0FBECDBF8D874E875F8747
S1130F90688B798B2A8B0B8B8E859F85A889B98961
S1130FA028EE33E040E050E0BC01CD010E94E9149A
S1130FB0DC01CB019A8389838E859F85A889B989B1
S1130FC028EE33E040E050E0BC01CD010E94E9147A
S1130FD0DA01C9019C838B838B819C819C01A9E8E4
S1130FE0B8E80E940B1596958795929582958F7017
S1130FF089279F7089279C838B838E859F85A889E9
S1131000B98928EE33E040E050E0BC01CD010E94F4
S1131010E914DA01C9019E838D834D815E819A01B1
S1131020A9E8B8E80E940B159C01369527953295DE
S113103022952F7023273F7023276CE3629FC00102
S1131040639F900D11249A01281B390BC9019E83BB
S11310508D831F8258C049815A819A01ADECBCEC42
S11310600E940B15969587959695879596958795E5
S1131070880F991F9C01220F331F220F331F820FE9
S1131080931FFA01E81BF90BCF018B878B85805DD9
S11310908B8789819A819C01ADECBCEC0E940B1575
S11310A09695879596958795969587959A8389833E
S11310B08D85682F70E08B89282F30E08A89882FEE
S11310C090E0AC01495F5F4F8F81882F90E0FA0177
S11310D0E81BF90BCF01E4E1E29FA001E39F500D6F
S11310E01124E0E5E69F9001E79F300D1124240FC1
S11310F0351F820F931F8A5E9C4F2B85FC01208332
S11311008F818F5F8F838F81833008F4A4CF1886FB
S113111058C04D815E819A01ADECBCEC0E940B1568
S1131120969587959695879596958795880F991F97
S11311309C01220F331F220F331F820F931F9A012A
S1131140281B390BC9018C878C85805D8C878D8128
S11311509E819C01ADECBCEC0E940B159695879585
S113116096958795969587959E838D838D85682F13
S113117070E08B89282F30E08A89882F90E0AC01B9
S11311804D5F5F4F8885882F90E0FA01E81BF90BCB
S1131190CF01E4E1E29FA001E39F500D1124E0E5BB
S11311A0E69F9001E79F300D1124240F351F820F15
S11311B0931F8A5E9C4F2C85FC01208388858F5F5A
S11311C088878885823008F4A4CF198666C04B814D
S11311D05C819A01ADECBCEC0E940B159695879549
S11311E09695879596958795880F991F9C01220F50
S11311F0331F220F331F820F931F9A01281B390BB1
S1131200C9018A878A85805D8A8731E08A8580332F
S113121009F030E021E08B819C810A9708F020E0FE
S1131220832F8223882311F080E18A878B819C811C
S11312309C01ADECBCEC0E940B1596958795969598
S11312408795969587959C838B838D85682F70E011
S11312508B89282F30E08A89482F50E08985882F90
S113126090E0FA01E81BF90BCF01E4E1E29FA00151
S1131270E39F500D1124E0E5E69F9001E79F300DB8
S11312801124240F351F820F931F8A5E9C4F2A85D9
S1131290FC01208389858F5F89878985823008F4E2
S11312A096CF000063960FB6F894DEBF0FBECDBF95
S11312B0DF91CF910F910895CF93DF9300D000D0A9
S11312C0CDB7DEB71A82198256C01C821B8249C070
S11312D089819A8144E1489F9001499F300D1124EE
S11312E08B819C81820F931F8A5E9C4F20E1FC01BD
S11312F0208389819A8144E1489F9001499F300D60
S113130011248B819C81820F931F8A599C4F20E169
S1131310FC01208389819A8144E1489F9001499F7F
S1131320300D11248B819C81820F931F8A549C4F12
S113133020E1FC01208389819A8144E1489F900146
S1131340499F300D11248B819C81820F931F8A5FEA
S11313509B4F20E1FC0120838B819C8101969C831F
S11313608B838B819C8144970CF4B2CF89819A81C1
S113137001969A83898389819A8104970CF4A5CF75
S113138000000F900F900F900F90DF91CF91089570
S1131390CF93DF93CDB7DEB784E58093160383E55F
S11313A08093170386E58093180383E580932003D5
S11313B080E58093210384E48093220383E4809373
S11313C02A038FE480932B038FE480932C038CE413
S11313D080932D0381E48093340383E48093350365
S11313E084E58093360382E480933E0382E4809311
S11313F03F0383E5809348038FE48093490383E4A8
S113140080934A038CE480935C0386E580935D03B8
S113141083E580935E0386E580931E038BE48093CB
S113142027038DE48093280388E48093290383E4CD
S11314308093320383E480933B038DE280934603DD
S113144085E280934F0386E58093630383E480936E
S1131450660384E5809367038DE48093680389E4DD
S1131460809369038EE480936A038DE4809373030D
S113147081E48093740388E58093750383E4809307
S11314807A0386E580937B038DE480937C0389E46F
S113149080937D038EE480937E038DE480938703A1
S11314A081E48093880388E58093890381E48093B1
S11314B08E0380E580938F0380E58093900383E51A
S11314C08093910381E38093920382E380939B034F
S11314D082E48093A20380E58093A30386E480934F
S11314E0A40382E58093AF0383E48093700383E4D1
S11314F080937A0386E58093840386E580938E0344
S113150085E28093980385E28093A20382E480932A
S1131510AC0382E48093B60384E58093B60383E44A
S11315208093B70382E48093CA0385E48093CB035A
S113153083E58093CC0380E58093DE0382E580938A
S1131540DF0385E48093E0038CE48093F2038EE46C
S11315508093F30383E58093BB0380E58093BC030E
S113156085E48093BD0384E48093BE038BE480937D
S1131570C3038DE48093C40388E48093C5038FE49C
S11315808093F80384E48093F9038FE48093FA034F
S11315908BE48093FF038DE4809300048AE38093BB
S11315A0CF038AE38093D2038AE38093E3038AE33D
S11315B08093E6030000DF91CF910895CF93DF93EA
S11315C000D01F92CDB7DEB78B8319821A8222C056
S11315D08B81882F90E02A81222F30E002C09595DC
S11315E087952A95E2F7817099272A81222F30E086
S11315F047E050E0BA01621B730B9B0102C0880FE5
S1131600991F2A95E2F7982F8981892B89838A81EA
S11316108F5F8A838A818830D8F289810F900F90F6
S11316200F90DF91CF910895CF93DF93CDB7DEB7BD
S113163082E290E022E230E0F90120812F70FC0187
S1131640208384E390E024E330E0F90120812B7FC0
S1131650FC0120830000DF91CF910895CF93DF93A5
S1131660CDB7DEB788E290E0FC01108284E390E01D
S113167024E330E0F90120812C7FFC012083000069
S1131680DF91CF910895CF93DF931F92CDB7DEB74B
S1131690898382E290E022E230E0F9012081622F26
S11316A02981422F50E02FEF30E002C0220F331F78
S11316B04A95E2F72095309522953295307F32276E
S11316C0207F3227262BFC01208384E390E024E34F
S11316D030E0F9012081622F2981422F50E020E877
S11316E030E002C0359527954A95E2F72470262B01
S11316F0FC01208300000F90DF91CF910895CF93D8
S1131700DF931F92CDB7DEB7898388E290E028E2A9
S113171030E0F9012081622F2981422F50E02FEF20
S113172030E002C0359527954A95E2F72095262B9F
S1131730FC01208384E390E024E330E0F90120817C
S1131740622F398129E3329F212D11242695422FBE
S113175050E02FEF30E002C0220F331F4A95E2F72A
S113176020953095598149E3549F412D1124469584
S1131770442F50E002C0220F331F4A95E2F7422F54
S113178039812DEC329F212D1124269526952695FD
S1131790240F262BFC01208300000F90DF91CF91B2
S11317A008950F931F93CF93DF9300D000D0CDB74C
S11317B0DEB78B836C830EE210E08B81FFDEF801D1
S11317C080838C81813051F485E290E025E230E021
S11317D0F90120812064FC01208309C085E290E0A6
S11317E025E230E0F90120812F7BFC01208385E292
S11317F090E025E230E0F90120812061FC012083A2
S11318001A82198205C089819A8101969A838983F3
S113181089819A8184369105B4F385E290E025E2CA
S113182030E0F90120812F7EFC01208300000F901D
S11318300F900F900F90DF91CF911F910F9108950A
S11318408F92AF92CF92EF920F93CF93DF93CDB756
S1131850DEB729970FB6F894DEBF0FBECDBF8983DC
S11318606A834B832C830D83EE82CF82A88689867C
S11318708981882F90E00896880F880F880F60E090
S113188090DF61E08A818DDF61E08B818ADF61E036
S11318908C8187DF61E08D8184DF61E08E8181DF6F
S11318A061E08F817EDF61E088857BDF61E089858F
S11318B078DF60E082E075DF000029960FB6F894C7
S11318C0DEBF0FBECDBFDF91CF910F91EF90CF90D0
S11318D0AF908F900895CF93DF931F92CDB7DEB76B
S11318E0898380912E02843128F58981682F70E0E4
S11318F080912F02282F30E080912E0291E0980FE2
S113190090932E02882F90E0E4E1E29FA001E39FF0
S1131910500D1124E0E5E69F9001E79F300D11245E
S1131920240F351F820F931F8A5E9C4FFC01808118
S113193061E037DF80912E02843189F480912F0297
S1131940882F90E0895F9E4FFC01808160E029DF51
S113195010922E0280912F028F5F80932F0280912C
S11319602F02843011F410922F0200000F90DF91A7
S1131970CF9108958F92AF92CF92EF920F93CF931E
S1131980DF93CDB7DEB70F2EFFE18F2EF02D0F2E94
S1131990FFE1AF2EF02D0F2EFFE1CF2EF02DE12C25
S11319A000E020E040E060E080E04ADF812CA12CF0
S11319B0C12CE12C00E020E04FE16FE181E040DF49
S11319C00F2EFFEE8F2EF02D0F2EFFEEAF2EF02DEB
S11319D00F2EFFEECF2EF02D0F2EFFEEEF2EF02D5B
S11319E00FEE2FEE4FEE6FEE82E02ADF0F2EFEE1B8
S11319F08F2EF02D0F2EFEE1AF2EF02D0F2EFEE1D7
S1131A00CF2EF02D0F2EFEE1EF2EF02D0EE12EE164
S1131A104EE16EE183E014DF812CA12CC12CE12C7A
S1131A200FEF2FEF4FEF6FEF84E00ADF0F2EFFEE83
S1131A308F2EF02D0F2EFFEEAF2EF02D0F2EFFEE7A
S1131A40CF2EF02D0F2EFFEEEF2EF02D0FEF2FEFF8
S1131A504FEF6FEF85E0F4DE812C6894AA24A1F89F
S1131A600F2EF5E1CF2EF02D0F2EFAE0EF2EF02DF4
S1131A7004E02AE045E168E086E0E2DE0000DF9170
S1131A80CF910F91EF90CF90AF908F900895CF9317
S1131A90DF9300D0CDB7DEB71A8219820DC08981D9
S1131AA09A8180509F4FFC01808160E07ADE8981B9
S1131AB09A8101969A83898389819A8107977CF315
S1131AC000000F900F90DF91CF910895CF93DF9393
S1131AD0CDB7DEB78091290290912A02A0912B0202
S1131AE0B0912C028854944FAF4FBF4F9C01AD016D
S1131AF08091430290914402A0914502B091460224
S1131B00281739074A075B07D8F020E040E06CE06B
S1131B1071E080E078D821E040E061E271E080E0AB
S1131B2072D822E040E066E371E080E06CD823E004
S1131B3040E06BE471E080E066D880E0CCDE35C044
S1131B408091290290912A02A0912B02B0912C023B
S1131B508059984EAF4FBF4F9C01AD018091430215
S1131B6090914402A0914502B0914602281739078A
S1131B704A075B07D0F020E040E060E671E080E0D7
S1131B8042D821E040E065E771E080E03CD822E003
S1131B9040E06AE871E080E036D823E040E06FE995
S1131BA071E080E030D880E096DE80912D02482FED
S1131BB050E024E931E0429FC001439F900D529FC1
S1131BC0900D11249C01990F440B550B809129020F
S1131BD090912A02A0912B02B0912C02820F931FA4
S1131BE0A41FB51F9C01AD01809143029091440252
S1131BF0A0914502B0914602281739074A075B07AE
S1131C0098F480912D02863020F480912D023BDDE2
S1131C1006C085E038DD80912D02855070DD80910D
S1131C202D028F5F80932D020000DF91CF910895E4
S1131C30CF93DF931F92CDB7DEB7198223E030E054
S1131C4040E050E064EB71E080E090E00E94030625
S1131C508091DC019091DD018337910578F08981D1
S1131C60882F90E023E030E0AC016FEB71E080E07E
S1131C7090E00E94030689818C5F89838091DC0156
S1131C809091DD0131E0CC9708F430E08981882F10
S1131C9090E0049621E00B9708F020E0832F822344
S1131CA0882379F08981882F90E023E030E0AC012B
S1131CB06FEB71E080E090E00E94030689818C5F05
S1131CC089838981882351F423E030E040E050E0A7
S1131CD064EC71E080E090E00E94030600000F9045
S1131CE0DF91CF910895EF92FF920F931F93CF93BB
S1131CF0DF93CDB7DEB7FED373D40E94CC01C7DE29
S1131D0039DE0E94A700D8DA78948091430290913A
S1131D104402A0914502B091460290932A02809316
S1131D20290201C0D3DE8091290290912A028059B0
S1131D30984E9C01990F440B550B8091430290914E
S1131D404402A0914502B0914602281739074A0778
S1131D505B0740F768EB7BE08AE087D2ADDA18DBFB
S1131D6080915E02813208F40DC210925E0280916D
S1131D703A02882309F03FC18091D4019091D501A2
S1131D80E12C05E023E040E0BC0180E00E9457061E
S1131D908091230290912402E12C0EE023E040E0A4
S1131DA0BC0180E00E9457068091DC019091DD0126
S1131DB0EE24E39406E022E040E0BC0180E00E94CF
S1131DC057068091D6019091D701EE24E3940FE059
S1131DD022E040E0BC0180E00E9457068091D801D7
S1131DE09091D9016894EE24E1F80EE023E040E0FC
S1131DF0BC0180E00E9457068091DA019091DB01DA
S1131E000F2EF3E0EF2EF02D0FE022E040E0BC01B6
S1131E1080E00E9457068091D301882371F422E068
S1131E2040E067EC71E080E00E94030681E080936B
S1131E300B0181E080934B022BC010924B028091E6
S1131E400B01882391F080E18093400380E180932B
S1131E50410380E18093420380E1809343038091B6
S1131E600B01815080930B0193DA9091E2018091F0
S1131E70E101692F0E948405882F90E06894EE2484
S1131E80E1F806E022E040E0BC0180E00E94570651
S1131E902091F4013091F5014091F6015091F70140
S1131EA08091030290910402A0910502B091060270
S1131EB079018A01E81AF90A0A0B1B0BD801C70138
S1131EC080934C0290934D02A0934E02B0934F0224
S1131ED0209150023091510240915202509153028C
S1131EE080914C0290914D02A0914E02B0914F020C
S1131EF0281739074A075B07A1F1809143029091A3
S1131F004402A0914502B091460280934702909307
S1131F104802A0934902B0934A02809147029091EB
S1131F204802A0914902B0914A0288579C4EAF4F93
S1131F30BF4F8093470290934802A0934902B09305
S1131F404A0280914C0290914D02A0914E02B091B0
S1131F504F028093500290935102A0935202B09387
S1131F605302209147023091480240914902509116
S1131F704A028091430290914402A0914502B0919B
S1131F80460282179307A407B50768F580914C02AF
S1131F9090914D02A0914E02B0914F0299231CF4EE
S1131FA0919581959109092E000CAA0BBB0B03E0B6
S1131FB021E0AC01BD0180E00E94BA078AE380936E
S1131FC0570380914C0290914D02A0914E02B09122
S1131FD04F02BB2324F08BE2809352030CC08DE2AA
S1131FE08093520308C024DE23E040E060E372E003
S1131FF080E00E94030680913A02813009F06CC0AF
S11320008091DF01882F90E06894EE24E1F805E0E8
S113201023E040E0BC0181E00E9457068091E0018A
S1132020882F90E06894EE24E1F80CE023E040E08F
S1132030BC0181E00E9457068091EF019091F0016C
S1132040E12C07E022E040E0BC0181E00E94570659
S11320508091F1019091F201E12C01E122E040E054
S1132060BC0181E00E9457068091EB019091EC0144
S1132070EE24E39406E022E041E0BC0181E00E940A
S113208057068091ED019091EE01EE24E39400E176
S113209022E041E0BC0181E00E9457068091E10109
S11320A0882F90E00F2EF3E0EF2EF02D07E022E0D2
S11320B040E0BC0181E00E9457068091E201882F34
S11320C090E00F2EF3E0EF2EF02D01E122E040E04E
S11320D0BC0181E00E94570680913A02823009F0E7
S11320E051C08091030290910402A0910502B09125
S11320F0060201E024E0AC01BD0182E00E94BA07BF
S11321008091120290911302A0911402B0911502D1
S113211002E024E0AC01BD0182E00E94BA07809194
S11321202102909122020F2EF3E0EF2EF02D0AE00F
S113213023E040E0BC0182E00E945706E12C03E06A
S113214021E040E069E070E082E00E94570680915F
S1132150F301882F90E00F2EF3E0EF2EF02D03E033
S113216022E040E0BC0182E00E94570680912302F5
S113217090912402E12C0AE023E040E0BC0182E0DB
S11321800E94570680915F02882331F080913A02C1
S1132190A2DB10925F0296D0209143023091440258
S11321A0409145025091460280913F029091400235
S11321B0A0914102B091420279018A01E81AF90A18
S11321C00A0B1B0BD801C7010A97A105B105A0F0A2
S11321D00E94A5020E94EE02809143029091440263
S11321E0A0914502B091460280933F029093400231
S11321F0A0934102B09342022091430230914402E1
S1132200409145025091460280913B0290913C02DC
S1132210A0913D02B0913E0279018A01E81AF90ABF
S11322200A0B1B0BD801C70184369105A105B10522
S113223008F496CD84E390E024E330E0F9013081A2
S113224028E02327FC0120838091430290914402DB
S1132250A0914502B091460280933B0290933C02C8
S1132260A0933D02B0933E027BCDCF93DF9300D089
S11322701F92CDB7DEB789837B836A83898180937C
S113228056028A819B8190935802809357028091D1
S1132290430290914402A0914502B091460280937A
S11322A0590290935A02A0935B02B0935C0210927D
S11322B054021092550200000F900F900F90DF917E
S11322C0CF9108950F931F93CF93DF93CDB7DEB7CC
S11322D09091540280915602981708F0A2C0209160
S11322E057023091580280915602882F90E0880F4F
S11322F0991FAC01C901BA0145D3CB0196958795C5
S11323009C0140E050E08091590290915A02A091C2
S11323105B02B0915C0289019A01080F191F2A1F00
S11323203B1F80915402E82FF0E0409157025091F6
S1132330580280915602882F90E0880F991FBC01A3
S1132340CA0120D3CB01AC01E49FC001E59F900DED
S1132350F49F900D1124CC01A0E0B0E0A9019801F4
S1132360280F391F4A1F5B1F80914302909144023A
S1132370A0914502B091460282179307A407B507BE
S113238088F080915502882369F481E08093550296
S113239085E079D98AE0B3D9809154028F5F809324
S11323A0540247C080915402282F30E040915702D4
S11323B05091580280915602882F90E0880F991FFF
S11323C0BC01CA01DFD2CB01AC01249FC001259F0F
S11323D0900D349F900D11249C0140E050E08091B9
S11323E0590290915A02A0915B02B0915C02280FAD
S11323F0391F4A1F5B1F8091430290914402A091B0
S11324004502B091460282179307A407B50788F0E6
S113241080915502813069F41092550205D91ED974
S113242008C0109254021092560210925502FCD821
S113243015D90000DF91CF911F910F9108951F923C
S11324400F9200905F000F92112400905B000F9296
S11324502F933F938F939F93EF93FF93CF93DF93A8
S1132460CDB7DEB780915D02882F90E08230910570
S113247081F083309105B9F0019709F029C08EE409
S113248090E020915804FC01208382E080935D0257
S11324901FC08EE490E020915904FC01208383E066
S11324A080935D0215C085E290E025E230E0F901F9
S11324B020812068FC01208382E290E022E230E067
S11324C0F90120812860FC01208310925D02000044
S11324D00000DF91CF91FF91EF919F918F913F91F8
S11324E02F910F9000925B000F9000925F000F906D
S11324F01F901895CF93DF93CDB7DEB781E290E0BC
S113250021E230E0F90120812C6FFC01208381E27B
S113251090E021E230E0F90120812C7FFC0120834E
S113252084E290E024E230E0F9012081266FFC018E
S1132530208384E290E024E230E0F9012081277FC7
S1132540FC01208387E290E02FEFFC0120838AE2E4
S113255090E02AE230E0F90120812F69FC01208318
S11325608DE290E02FEFFC01208380E390E020E3F4
S113257030E0F9012081217FFC01208383E390E096
S113258023E330E0F90120812F61FC01208382E202
S113259090E0FC01108285E290E0FC01108288E268
S11325A090E0FC0110828BE290E0FC0110828EE24C
S11325B090E0FC01108281E390E0FC01108284E34E
S11325C090E0FC01108282E290E022E230E0F90126
S11325D020812360FC0120830000DF91CF910895C6
S11325E0CF93DF93CDB7DEB784E490E02BE0FC011A
S11325F020838EE690E022E0FC01208387E490E0D3
S113260029EFFC0120830000DF91CF9108951F92F0
S11326100F9200905F000F9211248F939F93AF93BA
S1132620BF93CF93DF93CDB7DEB781E080935F0292
S113263080915E028F5F80935E028091430290914D
S11326404402A0914502B09146020196A11DB11D1C
S11326508093430290934402A0934502B0934602B0
S11326600000DF91CF91BF91AF919F918F910F9017
S113267000925F000F901F9018950CD0E6C0DED03A
S113268040F0D5D030F021F45F3F19F0C7C05111AC
S113269010C1CAC0EBD098F39923C9F35523B1F301
S11326A0951B550BBB27AA2762177307840738F0BD
S11326B09F5F5F4F220F331F441FAA1FA9F333D01C
S11326C00E2E3AF0E0E830D091505040E695001CD0
S11326D0CAF729D0FE2F27D0660F771F881FBB1F8C
S11326E0261737074807AB07B0E809F0BB0B802D66
S11326F0BF01FF2793585F4F2AF09E3F510568F0B2
S11327008DC0D7C05F3FECF3983EDCF38695779598
S11327106795B795F7959F5FC9F7880F911D9695B3
S1132720879597F90895E1E0660F771F881FBB1F0F
S1132730621773078407BA0720F0621B730B840BBC
S1132740BA0BEE1F88F7E095089598D088F09F574C
S113275090F0B92F9927B751A0F0D1F0660F771FE9
S1132760881F991F1AF0BA95C9F712C0B13081F0C9
S11327709FD0B1E008959CC0672F782F8827B85F59
S113278039F0B93FCCF3869577956795B395D9F72A
S11327903EF490958095709561957F4F8F4F9F4F34
S11327A00895E89409C097FB3EF490958095709540
S11327B061957F4F8F4F9F4F9923A9F0F92F96E989
S11327C0BB279395F695879577956795B795F111FE
S11327D0F8CFFAF4BB0F11F460FF1BC06F5F7F4F9B
S11327E08F4F9F4F16C0882311F096E911C07723AD
S11327F021F09EE8872F762F05C0662371F096E8B6
S1132800862F70E060E02AF09A95660F771F881F84
S1132810DAF7880F9695879597F9089597F99F6742
S113282080E870E060E008959FEF80EC0895002454
S11328300A941616170618060906089500240A9421
S113284012161306140605060895092E0394000CA7
S113285011F4882352F0BB0F40F4BF2B11F460FF36
S113286004C06F5F7F4F8F4F9F4F089557FD90585F
S1132870440F551F59F05F3F71F04795880F97FB40
S1132880991F61F09F3F79F08795089512161306FA
S11328901406551FF2CF4695F1DF08C01616170629
S11328A01806991FF1CF869571056105089408955E
S11328B0E894BB2766277727CB0197F908950BD0B7
S11328C0C4CFB5DF28F0BADF18F0952309F0A6CFFE
S11328D0ABCF1124EECFCADFA0F3959FD1F3950FB0
S11328E050E0551F629FF001729FBB27F00DB11D90
S11328F0639FAA27F00DB11DAA1F649F6627B00D20
S1132900A11D661F829F2227B00DA11D621F739F08
S1132910B00DA11D621F839FA00D611D221F749F16
S11329203327A00D611D231F849F600D211D822F5D
S1132930762F6A2F11249F5750408AF0E1F08823A4
S11329404AF0EE0FFF1FBB1F661F771F881F9150B1
S11329505040A9F79E3F510570F060CFAACF5F3F6A
S1132960ECF3983EDCF3869577956795B795F795E4
S1132970E7959F5FC1F7FE2B880F911D969587956C
S113298097F90895AA1BBB1B51E107C0AA1FBB1FDF
S1132990A617B70710F0A61BB70B881F991F5A95E7
S11329A0A9F780959095BC01CD01089597FB072E5A
S11329B016F4009406D077FD08D0E4DF07FC05D0B8
S11329C03EF4909581959F4F0895709561957F4F42
S11329D00895A1E21A2EAA1BBB1BFD010DC0AA1F5C
S11329E0BB1FEE1FFF1FA217B307E407F50720F074
S11329F0A21BB30BE40BF50B661F771F881F991FEF
S1132A001A9469F760957095809590959B01AC0137
S1132A10BD01CF010895A29FB001B39FC001A39F40
S1132A20700D811D1124911DB29F700D811D112403
S1132A30911D0895FC0101900020E9F7809590957F
S10D2A408E0F9F1F0895F894FFCF36
S1132A4A3908061700020CC094D4800120202020E3
S1132A5A20204449432056302E3120202020202093
S1132A6A002020536F6674776172652077726974E7
S1132A7A74656E202000202020202020202020623F
S1132A8A792020202020202020200042616C7469B3
S1132A9A6320526163696E6720416C756D6E6900CB
S1132AAA202020416E64206669786564206279205A
S1132ABA20202020002020202020204465696E65E3
S1132ACA204D75646461202020002D2D2D2D2D2D7F
S1132ADA2D2D2D2D2D2D2D2D2D2D2D2D2D2D002052
S1132AEA20234D4F534645542D42617262656375E6
S1132AFA65202000202020202020202020200043A0
S1132B0A4C5421004F4B004C4320414354495645F1
S1052B1A0000B5
S9030000FC
