S00B00006469632E73726563E9
S113000050C0000069C0000067C0000065C0000067
S113001063C0000061C000005FC000005DC000005C
S11300205BC0000059C0000057C0000055C000006C
S113003054C0000051C000004FC000004DC000007B
S11300404BC0000049C0000047C0000045C000008C
S113005043C0000041C000003FC000003DC000009C
S11300603BC0000039C0000037C0000035C00000AC
S113007033C0000031C000002FC000002DC00000BC
S11300802BC0000029C0000027C0000025C00000CC
S113009023C00000ED000A01270144016101810130
S11300A09E0111241FBECFEFD0E1DEBFCDBF11E012
S11300B0A0E0B1E0ECEEFFE002C005900D92AE309E
S11300C0B107D9F721E0AEE0B1E001C01D92A33F32
S11300D0B207E1F70BD688C793CF1F920F920FB6E2
S11300E00F9211248F9381E080930001809101018C
S11300F08F5F809301018F910F900FBE0F901F901F
S11301001895E1E8F0E080818D608083EFE6F0E00F
S11301108081826080838FE090E090938900809357
S1130120880008958FEF8DB987E087B918B81EB895
S113013008958EB9613011F4409A01C04098429AF2
S113014084E690E00197F1F7429808958F92AF9278
S1130150CF92DF92EF92FF920F931F93CF93DF938F
S1130160CDB7DEB7D62EF42E122F880F880F880F46
S113017060E0805CDEDF61E08D2DDBDF61E08F2DF0
S1130180D8DF61E0812FD5DF61E0802FD2DF61E02D
S11301908E2DCFDF61E08C2DCCDF61E08A2DC9DFAD
S11301A061E0882DC6DF60E082E0C3DFDF91CF919C
S11301B01F910F91FF90EF90DF90CF90AF908F90B1
S11301C00895E091BB018E2F90E08730910508F0EF
S11301D0D2C0FC01E65BFF4FDEC6E0910D0180E575
S11301E0E89FF0011124E55EFE4F8FEF818B828B37
S11301F0838B85A390E196A387A381AF92AF83AF4E
S1130200DF01A35BBF4F8C9311968C93E15BFF4F8F
S113021080830895E0910D0180E5E89FF0011124A9
S1130220E55EFE4F80E1818B9FEF928B938B85A3DC
S113023086A397A381AF82AF93AFDF01A35BBF4FC8
S11302408C9311968C93E15BFF4F90830895E0911A
S11302500D0180E5E89FF0011124E55EFE4F8FEF6C
S1130260818B828B838B15A216A287A381AF91E029
S113027092AF93AFDF01A35BBF4F8C9311968C9326
S1130280E15BFF4F80830895E0910D0180E5E89FD5
S1130290F0011124E55EFE4F8FEF818B828B838BFF
S11302A015A216A287A391E091AF92AF83AFDF01AD
S11302B0A35BBF4F8C9311968C93E15BFF4F8083BC
S11302C00895E0910D0180E5E89FF0011124E55EB9
S11302D0FE4F93E0918B80E1828B838B95A392E018
S11302E096A387A324E021AF35E032AF23AFDF012B
S11302F0A35BBF4F8C9311969C93E15BFF4F80836C
S11303000895E0910D0180E5E89FF0011124E55E78
S1130310FE4F8FEF818B828B838B85A316A217A24E
S113032091E091AF92AF83AFDF01A35BBF4F8C939A
S113033011968C93E15BFF4F80830895E0910D014A
S113034080E5E89FF0011124E55EFE4F8FEF818B7D
S1130350828B838B85A316A217A281AF90E192AF03
S113036083AFDF01A35BBF4F8C9311968C93E15B4A
S1130370FF4F80830895E0910D0180E5E89FF0012F
S11303801124E55EFE4F8FEF818B828B838B85A3D7
S113039086A387A381AF82AF83AFDF01A35BBF4F87
S11303A08C9311968C93E15BFF4F80830895EBE16E
S11303B0F1E04BE651E080E109C081938D93E217AF
S11303C0F307D9F7F9014217530739F0DF01A05BAE
S11303D0BF4F9F012C5E3F4FF0CFEBE1F1E08DE387
S11303E08093A8018093AF018093990180939D012C
S11303F08093A10123E42093A7016FE46093AE01ED
S11304002093AC0192E49093B4017EE27093B10125
S113041034E530939C01A5E4A093A00140E340930C
S113042093014093940140939501409396019083E6
S113043040E5418356E4528352E553838483978392
S1130440948B458B568BA78B808F938F90A731A766
S1130450ACE4A2A783A727A794AF30935801509385
S1130460590180935A0120935E0156E55187928782
S113047083877687508B358F468F53E5578F80A3BC
S113048096E094A361AB49E642AB33AB84AB20AFB7
S1130490509360012CE620936101409362018093A4
S11304A06301909367010895EBE1F1E090E1958396
S11304B080E38683918F828F0895EBE1F1E080E100
S11304C084A785A790E396A780935B0180935C0142
S11304D090935D0108958091D60139E2839F312D77
S11304E0112432953F702DEC829F212D11242695E5
S11304F026952695220F922F990F990F290F482F91
S1130500421B242F90E0841B910944E6349F8019F8
S1130510910911246AE070E02BD5311106C090E1F5
S113052090935001611109C004C0305D30935001B3
S113053004C080E18093510103C0605D6093510168
S1130540205D209352010895EBEBF1E081A162A1BB
S113055070E0762F6627680F711D072E000C880B3C
S1130560990B17D421E73DE34AE85EE376D4E3D35D
S11305702DEC629F212D1124269526952695220F78
S1130580822F880F880F280F462F421B242F39E211
S1130590639F312D112432953F70862F90E0841B88
S11305A0910944E6349F8019910911246AE070E0AE
S11305B0DFD4311104C080E18093270103C0305D92
S11305C030932701EBE1F1E0605D6587205D2787CB
S11305D008958091C7018870823018F480930D01CA
S11305E0089581E080930D0108958091C801869556
S11305F08F5C80939E0108958091CD0186952DECAA
S1130600829F212D1124269526952695220F922F1F
S1130610990F990F290F682F621B262F60930E01E3
S113062039E2839F312D112432953F7030931001AC
S113063090E0861B91096CE96303A0011124840FE7
S1130640951F6AE070E094D460930F01311106C0E5
S113065090E190933C01611109C004C0305D309376
S11306603C0104C080E180933D0103C0605D609360
S11306703D01205D20933E018091CB01805D8093FC
S1130680A20108950F931F93CF93DF93EBEBF1E057
S11306902089818990E0982F8827820F911D6AE034
S11306A070E066D4FB019B01A9E8B8E87AD4AC01F8
S11306B056954795529542954F7045275F7045274B
S11306C03695279536952795ABE7B4E16AD48C0126
S11306D016950795011108C080E1809393018093DA
S11306E094018093950132C09F01ADECBCEC59D4C8
S11306F0EC01D695C795D695C795D695C795CE01E5
S1130700880F991FCC0FDD1FCC0FDD1FCC0FDD1F11
S1130710C80FD91FCF018C1B9D0BEC0180E3800F08
S1130720809393012C1B310984E6089F2019310919
S1130730112437D4969587959695879596958795A0
S1130740805D80939401C05DC0939501413108F0B0
S113075040E1642F70E06031710574F4FB01DF0146
S1130760A559BE4FE158FE4F2FE831E090E19D932B
S11307709193E217F307D9F71616170674F4ABE64C
S1130780B1E0EFE7F1E0242F30E021583E4F8FEF46
S11307908D938193E217F307D9F7DF91CF911F91DE
S11307A00F910895CF92DF92EF92FF92CF93DF9350
S11307B0CBEBD1E06C8D70E080E090E0EAD220E0F9
S11307C030E048EC50E449D3B6D26B017C0170931D
S11307D01801609317019B01ADECBCECE2D3AC01B2
S11307E0569547955695479556954795CA01880F4E
S11307F0991F440F551F440F551F440F551F480F91
S1130800591FC601841B950BAC01809316013695C4
S1130810279536952795ABE7B4E1C3D3969587958D
S1130820809315015527C41AD50A960144E6849F7E
S1130830201931091124ADECBCECB3D396958795FE
S11308409695879596958795809314012F8D30E022
S1130850322F22278E8D282B332314F420E030E00E
S1130860EAE0F0E0C901BF0183D3482F809313016C
S1130870C90164E670E07CD360931201C901841B52
S1130880910924E6629F801991091124BF0170D354
S113089060931101DF91CF91FF90EF90DF90CF90A3
S11308A0089580DF80911201811108C080E1809356
S11308B0A90180911101811109C004C0805D809358
S11308C0A90104C080E18093AA0105C080911101AF
S11308D0805D8093AA0180911301805D8093AB01B8
S11308E080911501805D8093B00180911401805D39
S11308F08093B20180911601805D8093B3010895C5
S113090080911A018431C0F4E0910D019091190194
S113091021E0280F20931A0120E5E29FF001112421
S113092024E1929FE00DF11D1124E55EFE4FE80FD6
S1130930F11D61E08081FDDB80911A01843179F43D
S1130940E0911901F0E0E75FFE4F60E08081F1DBA8
S113095010921A01809119018F5F8093190180917F
S11309601901843011F41092190108958F92AF92F5
S1130970CF92EF920F930F2EFFE18F2EF02D0F2EBB
S1130980FFE1AF2EF02D0F2EFFE1CF2EF02DE12C45
S113099000E020E040E060E080E0D8DB812CA12C86
S11309A0C12C20E04FE16FE181E0D0DB0F2EFFEEA0
S11309B08F2EF02D0F2EFFEEAF2EF02D0F2EFFEE0B
S11309C0CF2EF02D0F2EFFEEEF2EF02D0FEE2FEE8B
S11309D04FEE6FEE82E0BADB0F2EFEE18F2EF02D8C
S11309E00F2EFEE1AF2EF02D0F2EFEE1CF2EF02DB7
S11309F00F2EFEE1EF2EF02D0EE12EE14EE16EE121
S1130A0083E0A4DB812CA12CC12CE12C0FEF2FEF70
S1130A104FEF6FEF84E09ADB0F2EFFEE8F2EF02D59
S1130A200F2EFFEEAF2EF02D0F2EFFEECF2EF02D5A
S1130A300F2EFFEEEF2EF02D2FEF4FEF6FEF85E02F
S1130A4085DB812C6894AA24A1F80F2EF5E1CF2E22
S1130A50F02D0F2EFAE0EF2EF02D04E02AE045E110
S1130A6068E086E073DB0F91EF90CF90AF908F90AA
S1130A7008950F931F93CF93DF93C2E0D1E009E071
S1130A8011E060E0899155DBC017D107D1F7DF9100
S1130A90CF911F910F9108953F924F925F926F9261
S1130AA07F928F929F92AF92BF92CF92DF92EF92FA
S1130AB0FF920F931F93CF93DF931092D80020E0FF
S1130AC030E0EDEEF0E00F2EFEEECF2ED12CF02D27
S1130AD00F2EFFEEEF2EF12CF02D00EF10E061EF62
S1130AE070E042EF50E00F2EF4EFAF2EB12CF02D5A
S1130AF00F2EF5EF8F2E912CF02D0F2EF6EF6F2E7B
S1130B00712CF02D0F2EF7EF4F2E512CF02DAAEF54
S1130B10B0E0C90182959295907F9827807F9827AD
S1130B20982F98609083E6011882E7011882E80103
S1130B301882EB011882EA011882C3EFD0E0188210
S1130B40E5011882E4011882E3011882E2011882A7
S1130B5090E08860382E392A30821C929F5F98304A
S1130B60C9F72F5F3F4F2F30310599F61092E200FD
S1130B708CE08093E30086E38093E4001092DB0032
S1130B80E8EDF0E0808182608083DF91CF911F9156
S1130B900F91FF90EF90DF90CF90BF90AF909F9018
S1130BA08F907F906F905F904F903F900895CF9378
S1130BB0DF93E82FF0E0CF0182959295907F9827FC
S1130BC0807F9827282F2860EE0FFF1FEE0FFF1F4E
S1130BD0EE0FFF1FE554FE4F90E0CDEED0E0AAEFFC
S1130BE0B0E0892F822B88838C9181939F5F98300A
S1130BF0C1F7DF91CF910895883078F02091DD001E
S1130C0030E08850A90102C0559547958A95E2F7CE
S1130C10CA0151E08527817008952091DC0030E0FD
S1130C20A90102C0559547958A95E2F7CA0151E09A
S1130C30852781700895CF93DF93EB01982F9295C8
S1130C40907F9093ED00D8DF882311F1CE01969523
S1130C50879596958795969587958093F300C29589
S1130C60CC0FC07EC093F2001092F10084E0809318
S1130C70F0008FEF8093F70080EE8093F6001092DF
S1130C80F5001092F40088EC8093EF001092EE00CF
S1130C90DF91CF91089560E072E080E0CCDF80E0E6
S1130CA086DF60E071E081E0C6DF81E080DF60E044
S1130CB076E082E0C0DF82E07ADF62E076E083E023
S1130CC0BADF83E074DF64E076E084E0B4DF84E0DC
S1130CD06EDF60E073E085E0AEDF85E068DF61E051
S1130CE073E086E0A8DF86E062CF08951BDAC1DEF8
S1130CF05EDB3CDE06DAD0DE7894809101018C3232
S1130D0090F010920101C7DF77DC63DC5ADA80913E
S1130D100D01813021F4B6DCC4DD67DC04C0CDDB19
S1130D2013DCC2DBD8DB80910001882331F3E8DDDA
S1130D3010920001E2CF70D088F09F5790F0B92F45
S1130D409927B751A0F0D1F0660F771F881F991F1C
S1130D501AF0BA95C9F712C0B13081F077D0B1E07A
S1130D60089574C0672F782F8827B85F39F0B93F8A
S1130D70CCF3869577956795B395D9F73EF490951E
S1130D808095709561957F4F8F4F9F4F0895E8949C
S1130D9009C097FB3EF490958095709561957F4FBF
S1130DA08F4F9F4F9923A9F0F92F96E9BB2793956D
S1130DB0F695879577956795B795F111F8CFFAF47D
S1130DC0BB0F11F460FF1BC06F5F7F4F8F4F9F4FAE
S1130DD016C0882311F096E911C0772321F09EE80C
S1130DE0872F762F05C0662371F096E8862F70E072
S1130DF060E02AF09A95660F771F881FDAF7880F4C
S1130E009695879597F9089557FD9058440F551F67
S1130E1059F05F3F71F04795880F97FB991F61F078
S1130E209F3F79F087950895121613061406551FEF
S1130E30F2CF4695F1DF08C0161617061806991F5B
S1130E40F1CF86957105610508940895E894BB2750
S1130E5066277727CB0197F908950BD078C069D01E
S1130E6028F06ED018F0952309F05AC05FC0112401
S1130E70EECFCADFA0F3959FD1F3950F50E0551F35
S1130E80629FF001729FBB27F00DB11D639FAA27DB
S1130E90F00DB11DAA1F649F6627B00DA11D661F2A
S1130EA0829F2227B00DA11D621F739FB00DA11D4B
S1130EB0621F839FA00D611D221F749F3327A00D05
S1130EC0611D231F849F600D211D822F762F6A2FA1
S1130ED011249F5750408AF0E1F088234AF0EE0F26
S1130EE0FF1FBB1F661F771F881F91505040A9F733
S1130EF09E3F510570F014C0AACF5F3FECF3983EBB
S1130F00DCF3869577956795B795F795E7959F5F99
S1130F10C1F7FE2B880F911D9695879597F9089533
S1130F2097F99F6780E870E060E008959FEF80EC98
S1130F30089500240A94161617061806090608953B
S1130F4000240A9412161306140605060895092EA1
S1130F500394000C11F4882352F0BB0F40F4BF2B10
S1130F6011F460FF04C06F5F7F4F8F4F9F4F089550
S1130F7097FB072E16F4009406D077FD08D020D0F6
S1130F8007FC05D03EF4909581959F4F0895709588
S1130F9061957F4F0895EE0FFF1F0590F491E02DAA
S1130FA00994A29FB001B39FC001A39F700D811D3E
S1130FB01124911DB29F700D811D1124911D08955E
S1130FC0AA1BBB1B51E107C0AA1FBB1FA617B7076B
S1130FD010F0A61BB70B881F991F5A95A9F7809587
S10F0FE09095BC01CD010895F894FFCF5A
S1110FEC01013908061700020CC094D48001DC
S9030000FC
